:020000040800F2
:10000000F02600209D010008A5010008A7010008B6
:10001000A9010008AB010008AD01000800000000C4
:10002000000000000000000000000000AF01000818
:10003000B101000800000000B3010008094C0008ED
:10004000B7010008B7010008B7010008B7010008B0
:10005000B7010008B7010008B7010008B7010008A0
:10006000B7010008B7010008B7010008ED0D00084E
:100070002D0E00084D0E00088D0E0008B701000877
:10008000B7010008D90E0008B7010008B701000841
:10009000B7010008B7010008B7010008B701000860
:1000A0008D4C0008B7010008B70100088F4C00080C
:1000B000914C0008934C0008954C000891240008CE
:1000C00071240008C1240008A1240008B701000819
:1000D000B7010008D9500008B701000859510008BD
:1000E000B7010008B7010008B7010008B701000810
:1000F000B7010008B70100089D4C00081D0F00085B
:10010000B7010008B7010008974C0008B7010008C4
:10011000B7010008B7010008994C00089B4C000883
:10012000B7010008B7010008B7010008610F000817
:10013000B7010008B7010008B7010008B7010008BF
:10014000B7010008B7010008B7010008B7010008AF
:10015000B7010008B7010008890F0008B7010008BF
:10016000B7010008B7010008B7010008B70100088F
:10017000B7010008B7010008B7010008B70100087F
:10018000B7010008B7010008DFF80CD000F07EFCD2
:100190000048004799680008F0260020064880477C
:1001A00006480047FEE7FEE7FEE7FEE7FEE7FEE75C
:1001B000FEE7FEE7FEE7FEE7314C00088901000894
:1001C000F0B480EA0102D40F4200B2EB410F02D238
:1001D0000246084611464A0042D0C30DDDB2C1F3C3
:1001E000C752AD1A202D35DAC1F3160141F40002D1
:1001F00004B15242C5F1200602FA06F12A41104428
:10020000B3EBD05F23D0C4B1012DA0EBC35009DC08
:10021000F0BC4FF0004202EAC35200F50000DBB22E
:1002200000F0F8BA400000F1807000EBC350A0F17C
:10023000807040EAD170490009E0490841EAC07184
:10024000A0EBC35000F50000400800EBC350F0BC29
:1002500000F0D7BA6142012202EB4101001BF6E730
:10026000F0BC704781F00041AAE780F00040A7E7AA
:1002700080EA010210B502F00043400026D04A0097
:1002800023D04FEA106101EB1261C0F35600C2F3B4
:10029000560240F4000042F40002A0FB0220A1F14B
:1002A0007F014FEA0040140401D000F1010050EA40
:1002B000124001D44000491EC2B20C0604EBD0101B
:1002C000401C4008802A02D003E0002010BD20F02E
:1002D0000100002900DA0020184310BD30B480EA84
:1002E000010202F0004530F0004221F0004015D03C
:1002F000A0B1C0F3C753C2F3C754C2F31601C0F391
:100300001600E41A41F4000140F400027D349142E9
:1003100001D3641C00E04900002C02DA30BC00204C
:1003200070474FF400000023914201D3891A034320
:1003300040084FEA4101F7D151B1914202D14FF04B
:10034000004105E002D24FF0010101E06FF0010130
:1003500003EBC450284430BC00F053BA2DE9FE4FE3
:10036000804681EA0300C00F0C46009021F0004156
:1003700023F00045B8EB0200A94105D240462146D2
:1003800090461C460B46024623F00040104304D121
:100390004046214603B0BDE8F08F270DC7F30A00A1
:1003A000C3F30A510290401A0190402866DAC3F361
:1003B000130040F4801B0098924620B10023D2EB3A
:1003C000030A63EB0B0B01985946C0F140025046FB
:1003D00000F0F6F906460D4650465946019A00F0DF
:1003E000FEF910EB08006141002487EA115284EA0B
:1003F000E7731A433BD0009A3AB3019A012A4FEAB5
:10040000075210DC001B61EB02014FF0004202EAD0
:100410000752CDE90042001C41F5801132462B46BF
:1004200000F032FAB6E7001B61EB0201001C41F557
:10043000801300185B412018A2F5001747EB030159
:1004400040EAD570B6196D4111E06D084FEA3606E5
:1004500045EAC0754FEA0752001B61EB0201001C20
:1004600041F5801149084FEA3000001951413246E8
:100470002B4603B0BDE8F04F00F0F9B90098012217
:1004800040000023D0EB020263EBE07300982146AA
:100490004FEAE074B8EB000061EB0401E9E783F098
:1004A00000435BE781F0004158E72DE9FE4F81EA08
:1004B000030404F0004421F0004100944FF0000BCD
:1004C00023F0004350EA010402D052EA030404D1AD
:1004D0000020014603B0BDE8F08FC3F30A54C1F316
:1004E0000A552C44A4F2F3340194A0FB0254C1F346
:1004F000130141F48011C3F3130343F4801301FB90
:10050000024400FB034E840A970A44EA815447EAF6
:100510008357A4FB076802958D0A05FB07854FEA00
:10052000932C04FB0C542705029D4FEA065847EA1A
:100530001637B5EB08056EEB070C870E920E47EAEF
:10054000811742EA8312A7FB0201B6EB0B0164EBB1
:1005500000042B0D43EA0C335E1844EB1C50DA46C2
:100560005146E7FB0201C5F313044FEA0B3343EA9C
:1005700014534FEA0432019C43EA0603A4F10C042D
:100580000294009CCDE900B400F07EF9A2E72DE9C9
:10059000F04D81EA030404F0004B21F000451446BD
:1005A0004FF0000A23F0004150EA050220D054EA3F
:1005B00001021DD0C5F30A570246C5F31303C1F368
:1005C0001300C1F30A5640F4801543F48013A7EBDF
:1005D0000608101BD64608F2FD3873EB050002D35F
:1005E00008F1010801E092185B41B8F1000F03DA4D
:1005F00000200146BDE8F08D00204FF48011064632
:1006000084460EE0171B73EB050705D3121B63EB43
:10061000050306434CEA010C49084FEA30009218E2
:100620005B4150EA0107EDD152EA030012D082EAA1
:10063000040083EA0501084303D100224FF0004380
:1006400008E0101BAB4102D20122002302E06FF050
:10065000010253101AEB06004CEB085110EB0A0094
:1006600041EB0B01BDE8F04D00F001B9C10F80EA8C
:10067000E0700844CA079623002100F0CBB8962307
:100680000022114600F0C6B830B404469623080094
:10069000214604D0B62330BC002200F0BBB820466F
:1006A0000021F8E70EB5C10F80EAE0700844CA07E0
:1006B000002140F233438DE80E000A460B4600F05D
:1006C000E3F803B000BD0EB540F2334102910021C2
:1006D000CDE900110A460B4600F0D6F803B000BD84
:1006E00000F0004220F00040C10DC0F3160040F4BD
:1006F00000007F2901DA00207047962903DCC1F150
:100700009601C84001E096398840002AF4D0404262
:10071000704720F00040C10DC0F3160040F4000007
:100720007F2901DA00207047962903DCC1F1960188
:10073000C840704796398840704700F0004230F05A
:1007400000400AD0C10D01F56071C0F3160042EA05
:100750000151C2084007114370470020014670470D
:1007600001F0004330B421F0004150EA010206D00C
:100770000A0DA2F56072C1F31301002A02DC30BC3D
:1007800000207047440F44EAC104C100E01830BCA7
:1007900000EBC25000F035B8002801DBC0F100408A
:1007A000002901DBC1F1004181427047002801DBD3
:1007B000C0F10040002901DBC1F1004188427047CF
:1007C000202A04DB203A00FA02F100207047914011
:1007D000C2F1200320FA03F3194390407047202A06
:1007E00006DBCB17203A41FA02F043EAE07306E059
:1007F00041FA02F3D040C2F1200291400843194669
:1008000070470029A8BF7047401C490008BF20F06E
:100810000100704710B4B0FA80FC00FA0CF050EA06
:10082000010404BF10BC704749B1CCF1200421FA87
:1008300004F411FA0CF118BF012121430843A3EB82
:100840000C01CB1D0106000A002BBEBF002010BC0E
:10085000704700EBC35010440029A4BF10BC704780
:10086000401C490008BF20F0010010BC704710B5C3
:10087000002B08DA401C41F1000192185B411A4339
:1008800001D120F0010010BD2DE9F04D92469B46AC
:1008900011B1B1FA81F202E0B0FA80F22032904652
:1008A000FFF78EFF04460F4640EA0A0041EA0B01BB
:1008B00053465A46084303D120463946BDE8F08DD9
:1008C000114653EA010015D0C8F14002504600F02D
:1008D000EFF805460E46504659464246FFF770FF70
:1008E000084301D0012000E00020054346EAE076FD
:1008F0002C4337430A984FEA4453A0EB08004FEAD1
:10090000D4240A304FF0000244EA47544FEAD72576
:1009100002D500200146D1E7010510196941DDE942
:10092000084500196941BDE8F04DA0E770B521F018
:10093000004303430CD0C1F30A550024D5EB040552
:1009400064EB0403D617AD1AB34102DB0020014665
:1009500070BD201841EB025170BD2DE9F04D002310
:100960001A461B1A8A4103DB00200146BDE8F08DC0
:10097000C1F30A52C1F3130141F480154FF0000B8B
:10098000D10702D100186D41521E0027044640F2E3
:10099000FF11384601EB620A3E46804602460020BF
:1009A0004FF4801100F084F8C2197141BB1846EB76
:1009B0000100B4EB030C75EB000C04D3E41A65EBF7
:1009C000000517460E46241908F101006D418046C6
:1009D0003428E3DDF91946EB0600091BA84103D2D0
:1009E0004FF0FF32134601E0002213461BEB0700D5
:1009F00046EB0A51BDE8F04DFFF739BF70B5C1F3C2
:100A00000A5201F000450024C1F3130140F2FF3304
:100A100041F480119A4201DA002070BD40F2334364
:100A20009A42A2F2334203DC524200F041F800E065
:100A300090402C43F1D0404270BD000030B50029F9
:100A400004DB4FF00044404264EB0101002B04DB67
:100A50004FF00044524264EB03038B4208BF8242D2
:100A600030BD000030B5002904DB4FF000444042A7
:100A700064EB0101002B04DB4FF00044524264EBB5
:100A80000303994208BF904230BD0000064C074D59
:100A900006E0E06840F0010394E80700984710344E
:100AA000AC42F6D3FFF774FB306D0008506D0008C0
:100AB000202A04DB203A21FA02F00021704721FAB3
:100AC00002F3D040C2F1200291400843194670471A
:100AD00070B501EB020410F8015B15F0070301D1BA
:100AE00010F8013B2A1106D110F8012B03E010F891
:100AF000016B01F8016B5B1EF9D12B0705D40023B4
:100B0000521E0FD401F8013BFAE710F8013B02F145
:100B10000202A1EB030303E013F8015B01F8015BA0
:100B2000521EF9D5A142D6D3002070BD21B18268F2
:100B300042F00102826003E0826822F001028260DA
:100B40007047000000210A4A11680A4A01EA0201BE
:100B5000D0E9002342EA0302836842EA0302C36841
:100B600042EA030242EA0101034AC2F80413704751
:100B700004230140E030FCFF0020014021B18268E5
:100B800042F48072826003E0826822F480728260A4
:100B9000704721B1826842F40072826003E082688B
:100BA00022F400728260704710B50121080203F040
:100BB00001FC00214FF4807003F0FCFB10BD00002D
:100BC00030B50246002000235068104C20400D79BB
:100BD0000C6844EA05242043506090680C4C204087
:100BE000D1E903542C438D682C434D7944EA4504E4
:100BF00020439060D06A20F470000C7D641EE4B243
:100C0000234340EA0350D06230BD0000FFFEFFFCEA
:100C1000FDF7FFC0F0B504460D4600200021092D68
:100C200011DDE068A5F10A0606EB4607072606FA7D
:100C300007F18843A5F10A0606EB460603FA06F11A
:100C40000843E0600CE0206905EB4507072606FA3B
:100C500007F1884305EB450603FA06F108432061D6
:100C6000072A0FDA606B561E06EB86071F2606FA68
:100C700007F18843561E06EB860605FA06F108437F
:100C8000606322E00D2A0FDA206BD61F06EB860781
:100C90001F2606FA07F18843D61F06EB860605FADB
:100CA00006F10843206310E0E06AA2F10D0606EBAE
:100CB00086071F2606FA07F18843A2F10D0606EB08
:100CC000860605FA06F10843E062F0BD816841F04E
:100CD00080418160704700002DE9F04100240A2521
:100CE00000202E49088002E001F0FAF904460021B4
:100CF0002046FFF751FDF7D029492046FFF74CFD6C
:100D000002D80020BDE8F08126E024480088FFF7E3
:100D1000B6FC07462349FFF7ABFA06462146FFF724
:100D20003BFD05D21D480088401C1C49088013E08B
:100D30001A480088FFF7A3FC07461B49FFF798FAFB
:100D400006462146FFF732FD05D214480088401EB2
:100D50001249088000E0002510480088FFF78FFC4A
:100D600007461049FFF784FA06462146FFF714FDAF
:100D70000CD30A480088FFF782FC07460A49FFF7B0
:100D800077FA06462146FFF711FD03D22800A5F1A8
:100D90000105BAD101480088B4E700000E00002028
:100DA0000000A0400000904000006040F0B5044604
:100DB0000D4601F0C7F906460F46A01B75EB07006C
:100DC00008D2A11845EB0300711A77EB00000AD393
:100DD0000120F0BDA11845EB0300711A77EB00006C
:100DE00001D30120F5E70020F3E7000010B50B491F
:100DF0000B4800F0ABF978B10849094800F0D4F885
:100E00000021074800F0EAF80121064801F01EFC25
:100E10001521054804F054FC10BD0000208000108E
:100E200010600240005400406C0B002010B50549D2
:100E3000054800F08BF918B10249034800F0B4F8F6
:100E400010BD0000008800102860024010B50B495A
:100E50000B4800F07BF978B10849094800F0A4F884
:100E60000121084801F0F2FB0021054800F0B6F826
:100E70001621054804F024FC10BD0000008020105D
:100E800040600240005800400C0C002010B50F4993
:100E90000F4800F05BF9B8B10E4890F8300010B17F
:100EA000012810D106E003F0B3FC0849084800F01F
:100EB0007BF808E00021064800F090F80349044858
:100EC00000F072F800BF00BF10BD000000800018E5
:100ED00058600240300D002010B50C490C4800F05D
:100EE00035F990B109490A4800F05EF80021084838
:100EF00000F074F8074801F061FD0121064801F097
:100F0000A5FB1621034804F0DBFB10BD0080202068
:100F1000A06002406C0B00200054004010B50C494A
:100F20000C4800F013F990B109490A4800F03CF868
:100F30000021084800F052F8074801F03FFD012168
:100F4000064801F083FB1621034804F0B9FB10BDED
:100F500000800028B86002400C0C002000580040BF
:100F600010B50749074800F0F1F838B104490548C1
:100F700000F01AF80021034800F030F810BD00001E
:100F8000008000185864024010B50549054800F07B
:100F9000DDF818B10249034800F006F810BD000062
:100FA00000800028B86402400246094B9A4201D2F0
:100FB000084801E00648103811F0005F03D0064BE6
:100FC0000B40C36002E0044B0B408360704700009D
:100FD00010640240006002407D0F7D0F21B1026865
:100FE00042F00102026003E0026822F001020260A6
:100FF00070470000016821F00101016000210160DB
:1010000041608160C1600161212141614A4988429A
:1010100004D13D21484A103A91608CE0464918318C
:10102000884205D14FF47461434A103A916082E0DE
:1010300041493031884205D14FF474113E4A103A8B
:10104000916078E03C494831884205D14FF07461A5
:10105000394A103A91606EE037496031884204D1D4
:101060003649354A103AD16065E0334978318842D3
:1010700004D13349304A103AD1605CE02E499031B6
:10108000884204D12F492C4A103AD16053E02A49B2
:10109000A831884205D14FF03D51274A103AD1601E
:1010A00049E02949884204D13D21274A083A116084
:1010B00041E025491831884205D14FF47461224A34
:1010C000083A116037E020493031884205D14FF4A9
:1010D00074111D4A083A11602DE01B4948318842BD
:1010E00005D14FF07461184A083A116023E016499F
:1010F0006031884204D11149134A121F11601AE06D
:1011000011497831884204D10D490F4A121F1160EC
:1011100011E00D499031884204D10A490A4A121F50
:10112000116008E00849A831884204D14FF03D51D0
:10113000054A121F11607047106002403D000020F8
:10114000400F002000003D201064024070B50246B0
:10115000002000240025114EB24201D2104B01E0C4
:101160000E4B103B0F4E314206D01E2606EAD1240C
:10117000166806EA040502E0566906F0800511F0DB
:10118000005F01D05C6800E01C68074E34400C42F0
:1011900002D00DB1012000E0002070BD10640240BB
:1011A000006002403C0F3C0F7D0F7D0F10B511F029
:1011B000800F09D022B1436943F08003436103E00B
:1011C000436923F08003436180290BD02AB103686F
:1011D00001F01E042343036004E0036801F01E04D1
:1011E000A343036010BD000010B500220268134B3A
:1011F0001A40CC680B6823434C6923438C69234312
:10120000CC6923430C6A23434C6A23438C6A2343EF
:101210004C6B23438C6B23431A430260426922F0D8
:101220000702D1E90B3423431A4342610B6943603F
:101230004B6883608B68C36010BD00003F801CF06A
:1012400070B5044600F07EFF05460E4600BF2246FC
:10125000002328463146FFF7A9FD0028F7D070BDCE
:101260002DE9FF4F93B08246A2491498FFF700F88A
:101270004FF080410D90FFF731F88346FFF75DFA9C
:1012800004460D469B491598FEF7F2FF4FF080414A
:101290000D90FFF723F88346FFF74FFA06460F46F7
:1012A00094491698FEF7E4FF4FF080410D90FFF748
:1012B00015F88346FFF741FA80468946404649467D
:1012C00005F020FBCDE906013046394605F01AFB52
:1012D000CDE902012046294605F014FBCDE90001C5
:1012E000DDE90223FFF7E1F8CDE90401DDE906239A
:1012F000FFF7DBF8CDE90A014046494605F02EF933
:10130000CDE906013046394605F028F9CDE902015C
:101310002046294605F022F9CDE90001DDE9022346
:10132000FFF7C3F8CDE90401DDE90623FFF7BDF8B7
:10133000CDE90801DDE90A23FFF710F8CDE90C013A
:10134000FFF70EFA0E904046494605F0DBFACDE96C
:1013500006013046394605F0D5FACDE902012046AE
:10136000294605F0FBF8CDE90001DDE90223FFF78E
:101370009CF8CDE90401DDE90623FFF796F8CDE9F5
:101380000A014046494605F0E9F8CDE90601304634
:10139000394605F0E3F8CDE902012046294605F07B
:1013A000B1FACDE90001DDE90223FFF77EF8CDE9CE
:1013B0000401DDE90623FFF778F8CDE90801DDE94E
:1013C0000A23FFF76CF8CDE90C01FFF7C9F90F907C
:1013D0004046494605F096FACDE9060130463946C1
:1013E00005F0BCF8CDE902012046294605F08AFA4D
:1013F000CDE90001DDE90223FFF757F8CDE904014B
:10140000DDE90623FFF751F8CDE90A0140464946D8
:1014100005F0A4F8CDE906013046394605F072FA28
:10142000CDE902012046294605F098F8CDE90001F2
:10143000DDE90223FFF739F8CDE90401DDE90623F0
:10144000FFF733F8CDE90801DDE90A23FEF786FF4F
:10145000CDE90C01FFF784F910904046494605F0AC
:101460007DF8CDE906013046394605F04BFACDE965
:1014700002012046294605F045FACDE90001DDE9E3
:101480000223FFF712F8CDE90401DDE90623FFF797
:101490000CF8CDE90A014046494605F033FACDE99A
:1014A00006013046394605F059F8CDE902012046DB
:1014B000294605F053F8CDE90001DDE90223FEF7E6
:1014C000F4FFCDE90401DDE90623FEF7EEFFCDE9E7
:1014D0000801DDE90A23FEF7E2FFCDE90C01FFF781
:1014E0003FF911900EA80FC88AE80F0017B0BDE8A9
:1014F000F08F000035FA8E3C10B52A4B07221146BA
:10150000294804F031FC294B07221146284804F0F1
:101510002BFC284B07221146274804F025FC274BBB
:1015200007221146264804F01FFC264B07221146CD
:10153000254804F019FC254B07221146244804F0E5
:1015400013FC244B01220721234804F00DFC234BFC
:1015500001220721224804F007FC224B07221146F2
:10156000214804F001FC214B01220721204804F00E
:10157000FBFB204B012207211F4804F0F5FB1F4B0A
:10158000072211461E4804F0EFFB1E4B07221146AE
:101590001D4804F0E9FB1D4B072211461C4804F0CE
:1015A000E3FB10BD180000203004002038070020A5
:1015B00038040020A001002018040020640200204C
:1015C00020040020140900206804002028030020C3
:1015D0002804002018080020580400205806002085
:1015E000100400205008002060040020FC070020A8
:1015F0004804002034080020500400207406002015
:1016000040040020D8090020700400209C0A00201B
:101610007804002030B587B0834A8449844800F0BC
:1016200039FB8149D1E90101CDE900018048016818
:1016300002918088ADF80C007B48036804A8039AE7
:1016400000F0E8F97B4804A90EC90EC00C380EC89A
:1016500003A8FFF705FE784803A92EC92EC010384D
:10166000C06875498968744A5268734DCDE9002194
:1016700002902B686D4DB5F90420B5F90210B5F94B
:10168000000000F095FB002419E0E11704EB517114
:10169000C910B4EBC1010BD1684A52F82410684A52
:1016A00052F82400FEF78CFD664941F8240005E05D
:1016B000634850F82400634941F82400641C312C2D
:1016C000E3DB614A6149624804F052FB614AD16838
:1016D000594A1068FEF7C6FD5F49C8605D4A116946
:1016E000554A5068FEF7BEFD5B490861594A516989
:1016F000514A9068FEF7B6FD57494861554A9169CD
:101700004D4AD068FEF7AEFD53498861534A5449AB
:101710004D4804F02DFB00240BE0524A52F82410EF
:101720004C4A52F82400FEF74BFD4F4941F8240083
:10173000641C072CF1DB00240BE04C4A52F8241007
:101740004B4A52F82400FEF78DFD484941F8240029
:10175000641C312CF1DB474A3D493B4804F008FB4F
:10176000454A4649464804F003FB464A4649414833
:1017700004F0FEFA454A4349414804F0F9FA444A64
:101780001168444A1068FEF71BFD43490860404A4F
:10179000116A404A106AFEF713FD3F4908623C4A4D
:1017A000116C3C4A106CFEF70BFD3B49086429485C
:1017B000C0683A4908602748006948602548406980
:1017C000886024488069C8600846C0680090084660
:1017D0000EC804A800F06AF8314804A90EC90EC06A
:1017E000144988682F49FEF743FD0546FEF778FF48
:1017F00000B22D4948840F4948682A49FEF738FD50
:101800000546FEF76DFF00B22749088409490868BC
:101810002449FEF72DFD0546FEF762FF00B222497E
:10182000C88307B030BD000034060020F20300205A
:10183000EC030020FC05002014060020DC00002042
:1018400028030020740600203804002040040020F3
:101850002804002058060020FC0700205004002027
:101860004804002034080020180800203807002011
:10187000006A0008680400201004002058040020BA
:1018800018040020700400202004002078040020A8
:10189000180000209C0A00201409002024060020C3
:1018A000080600200000C842B40D00200FB42DE946
:1018B000F04F89B0824615990846FEF7D9FC019091
:1018C00014990846FEF7D4FC00900199FEF778FCC5
:1018D00083464FF08041FEF7CBFC81464FF07E51AE
:1018E000FEF7C3FC8046FEF728FFCDE90401DDE9E1
:1018F0001501FEF7BDFC8346DDE91301FEF7B8FCD8
:1019000059460190FEF75CFC81464FF08041FEF79E
:10191000AFFC8046FEF711FFCDE90201DDE90423AB
:1019200004F05CFD06464FF00052394BFEF7BDFD5A
:101930000446FEF715FF069015991398FEF798FCDC
:10194000049016991498FEF793FC03900499FEF7FF
:1019500089FC4FF040410590FEF78AFC8346FEF774
:10196000ECFE064604F0EAFA80464FF00052284B9F
:10197000FEF79BFD0446FEF7F3FE07901699084616
:10198000FEF776FC019015990846FEF771FC009071
:101990000199FEF715FC83464FF08041FEF768FC85
:1019A00081464FF07E51FEF760FC8046FEF7C5FE93
:1019B000CDE90401DDE91401FEF75AFC83461699CE
:1019C0001398FEF755FC59460190FEF7F9FB814646
:1019D0004FF08041FEF74CFC8046FEF7AEFECDE9AD
:1019E0000201DDE9042304F0F9FC06464FF0005241
:1019F000074BFEF75AFD0446FEF7B2FE089006A814
:101A000007C88AE8070009B0BDE8F00F5DF814FBCD
:101A1000DCA54C400FB42DE9F04F93B08246BDF9E0
:101A20007800FEF73FFE06460F46BDF97600FEF74A
:101A300039FE804632463B4604F0D0FC0446FEF7B1
:101A40008FFE1090BDF8761011FB01F1BDF87820E3
:101A500012FB0210FEF726FECDE90A0104F0AAFFF0
:101A600080468946BDF974104842FEF71BFE424687
:101A70004B46CDE90C01FEF78AFD064604F09CFBBF
:101A80000446FEF76DFE1190BDF8741011FB01F2D3
:101A9000BDF8783013FB0320FEF704FE064604F081
:101AA00089FFCDE90A01BDF97600FEF7FBFD04468A
:101AB000DDE90A23FEF76BFD804604F07DFBCDE9EE
:101AC0000C01FEF74DFE1090BDF97800FEF7EAFD1F
:101AD00006460F46BDF974104842FEF7E3FD804606
:101AE00032463B4604F07AFC0446FEF739FE11907C
:101AF0001098FEF722FE044604F030FD8046894629
:101B00001198FEF71AFECDE9040104F0FBFE04462D
:101B10000D462198FEF711FE064622462B46FEF79B
:101B2000C4FC42464B46CDE90601FEF7BEFCCDE9BA
:101B30000A011198FEF701FE044604F0E3FECDE928
:101B400002011098FEF7F9FD064604F0DBFE04469C
:101B50000D462098FEF7F1FD804622462B46FEF703
:101B6000A4FCCDE90001DDE90223FEF79EFCCDE9EE
:101B700006011198FEF7E1FD804604F0EFFC0446F3
:101B80000D461F98FEF7D9FD064622462B46FEF766
:101B90008CFCCDE90401DDE90623FEF7DFFBCDE98E
:101BA0000801DDE90A23FEF7D9FBCDE90C01FEF7B8
:101BB000D7FD0F901098FEF7C0FD064604F0A2FE78
:101BC000804689462198FEF7B8FD044642464B46BA
:101BD000FEF76BFCCDE90A011098FEF7AEFD064654
:101BE00004F0BCFC04460D462098FEF7A6FD804696
:101BF00022462B46FEF759FCCDE90801DDE90A2310
:101C0000FEF74DFCCDE90C01FEF7AAFD0E900F98F2
:101C1000FEF793FD804689460E9880F0004B5846AB
:101C2000FEF78BFD064642464B4604F0D7FB0446C2
:101C3000FEF796FD12901F98FEF77FFD80468946BD
:101C40002098FEF77AFD064642464B4604F0C6FB56
:101C50000446FEF785FD12900D491098FEF708FB2B
:101C600010900B491198FEF703FB1190129880F029
:101C7000004407492046FEF7FBFA129010A807C857
:101C80008AE8070013B0BDE8F00F5DF814FB000010
:101C9000E12E65422DE9F04786B005460C46164612
:101CA0001027281DA91C2B46221DCDE90010A11CC0
:101CB000204602F0EDF8012800D0132703AA04A95A
:101CC00005A800F0A5FB012800D01227BDF91400DB
:101CD000FEF7CCFC82463249FEF7CAFA814631480B
:101CE00001684846FEF7C4FA80462F48016840461E
:101CF000FEF766FA3060BDF91000FEF7B7FC8246C9
:101D00002749FEF7B5FA8146264841684846FEF75E
:101D1000AFFA8046244841684046FEF751FA7060A9
:101D2000BDF90C00FEF7A2FC82461D49FEF7A0FAA1
:101D300081461C4881684846FEF79AFA80461A4850
:101D400081684046FEF73CFAB060B4F90000FEF747
:101D50008DFC81461549FEF7C1FA8046FEF7C0FCAE
:101D600000B22080B4F90200FEF780FC81460F49E2
:101D7000FEF7B4FA8046FEF7B3FC00B26080B4F917
:101D80000400FEF773FC81460849FEF7A7FA804677
:101D9000FEF7A6FC00B2A080384606B0BDE8F0878A
:101DA00048E13A3F400600204C0600200000034373
:101DB0002DE9F04F89B082460D4616461C46DDE9F6
:101DC0001389129F6648006880F000404FF0804100
:101DD0000190FEF783FA63490290FEF77FFA0390C1
:101DE000FEF7ABFCCDE9040104F00EFCCDE90601E1
:101DF000FEF7B6FC83464FF0804159480068FEF775
:101E00006DFA08905046FEF731FC06900899FEF7EF
:101E10002FFA0790FEF764FC0FFA80FA2846FEF7C7
:101E200025FC06900899FEF723FA0790FEF758FC68
:101E300005B23046FEF71AFC06900899FEF718FA2C
:101E40000790FEF74DFC06B220460899FEF710FAFF
:101E5000044638460899FEF70BFA074640460899AB
:101E6000FEF706FA804648460899FEF701FA8146D1
:101E70003D48C0F800B0C0F820B0C0F840B087F0CE
:101E800000403949486588F00040886589F0004085
:101E9000C865CAF10000FEF7E9FB334948666842AD
:101EA000FEF7E4FB304988667042FEF7DFFB2E49FF
:101EB000C8660846046789F0004048670846C0F8CD
:101EC00078805046FEF7D2FB2749C8673046FEF7B8
:101ED000CDFB2549C1F884006842FEF7C7FB2249C3
:101EE000C1F888000846C0F88C90C0F8904087F090
:101EF0000040C1F894002846FEF7B8FB1A49C1F823
:101F000098007042FEF7B2FB1749C1F89C0050469A
:101F1000FEF7ACFB1449C1F8A40088F00040C1F8FA
:101F2000A8000846C0F8AC70C0F8B0403046FEF7D4
:101F30009DFB0D49C1F8B4002846FEF797FB0A49FE
:101F4000C1F8B800CAF10000FEF790FB0649C1F8DD
:101F5000BC000649064803F0A4FF09B0BDE8F08FB5
:101F600010000020CDCCCC3DA0010020200400209A
:101F70001804002010B504462046FFF761F910BD93
:101F800010B51748006817490860174800681749D6
:101F90000860174802F0FFFE11490860154802F07A
:101FA000FAFE114908600E4800680E490968401A97
:101FB000114908600C4800680C490968401A0F492B
:101FC00008600F4800680C49096808440C4908601B
:101FD0000C4800680949096808440A49086010BDAE
:101FE00098040020900400209C0400209404002009
:101FF000000C004000080040800400208404002001
:10200000880400208C040020F0B50A46002100233B
:10201000002400BF3DE0012505FA01F3156805EA3B
:1020200003049C4234D105684F000326BE40B543EB
:10203000056015794E00B540066835430560157991
:10204000012D02D01579022D16D185684F00032687
:10205000BE40B543856055794E00B540866835432E
:102060008560456801268E40B54345604568967990
:102070008E40B6B235434560C5684F000326BE406A
:10208000B543C560D5794E00B540C6683543C560D7
:10209000491C1029BFD3F0BDF0B5002300244D0723
:1020A000ED0E02FA05F3CE1000F1200555F826508A
:1020B0004E07F70E0F26BE40B543CF1000F12006A5
:1020C00046F82750CE1000F1200555F8265045EA75
:1020D0000304CE1000F1200545F82640F0BD0000B5
:1020E0002DE9F0470025002407E02846691C8DB241
:1020F000104931F81000204484B20A2DF5DB0A2083
:1021000094FBF0F084B22046FEF7B9FA82460A4901
:10211000FEF7AEF881460949FEF7AAF8804607495E
:10212000FEF7A6F807460649FEF74AF80646304687
:10213000BDE8F08764050020703DAE3BD7A3803F2B
:10214000CDCC4C3E0148006800217047B40400200B
:102150002DE9FC4104460D4616460020009000275C
:102160000122694600F046FC012802D00020BDE8AB
:10217000FC81A4F58070FF380DD09DF8000000F0C0
:102180009F00009060079DF8001041EA10600090E9
:10219000F8B240F06007A5F58070FF380DD09DF8CB
:1021A000000000F0E3000090A8069DF8001041EA4E
:1021B00010600090F8B240F01C07A6F58070FF3860
:1021C0000CD09DF8000000F0FC000090F0B29DF8EB
:1021D000001008430090F8B240F003076946002061
:1021E00000F09EFC012801D00020C0E7012201A9D7
:1021F000002000F0FFFB012801D00020B7E79DF888
:102200000400074908709DF804009DF800108842FA
:1022100004D004A002F06EFC0020A8E70120A6E78D
:10222000780500202020202B20484D4335383833B6
:10223000202D20526567697374657220434F4E46A6
:1022400041204661696C00007CB504460020009086
:10225000002501226946104600F0CCFB012801D080
:1022600000207CBDA4F58070FF380DD09DF80000E3
:1022700000F01F00009060079DF8001041EA106018
:102280000090E8B240F0E0056946012000F048FC0B
:10229000012801D00020E4E7012201A9104600F046
:1022A000A9FB012801D00020DBE79DF804000749C5
:1022B00048709DF804009DF80010884204D004A0E6
:1022C00002F018FC0020CCE70120CAE778050020C6
:1022D0002020202B20484D4335383833202D2052E4
:1022E0006567697374657220434F4E4642204661AC
:1022F000696C00007CB504460D4600200090002665
:1023000001226946022000F075FB012801D000205F
:102310007CBDA4F58070FF380DD09DF8000000F062
:102320007F000090E0079DF8001041EA10600090E7
:10233000F0B240F08006A5F58070FF380CD09DF813
:10234000000000F0FC000090E8B29DF80010084387
:102350000090F0B240F003066946022000F0E0FB76
:10236000012801D00020D3E7012201A9022000F0BA
:1023700041FB012801D00020CAE79DF8040007496D
:1023800088709DF804009DF80010884204D004A0D5
:1023900002F0B0FB0020BBE70120B9E77805002080
:1023A0002020202B20484D4335383833202D205213
:1023B00065676973746572204D4F444520466169B5
:1023C0006C00000008B5684600F014F801280FD131
:1023D0009DF80000482809D19DF80100342805D156
:1023E0009DF80200332801D1012008BD0020FCE740
:1023F0000020FAE710B50446032221460A2000F027
:10240000F9FA012801D0002010BD0120FCE70000EE
:102410007CB504460D46164606226946032000F0A8
:10242000E9FA01281FD19DF801009DF8001040EA4B
:10243000012000B20D49088320809DF803009DF81B
:10244000021040EA012000B20849888330809DF8DC
:1024500005009DF8041040EA012000B203494883BA
:10246000288001207CBD0020FCE70000B40D002086
:1024700010B50549054800F012F918B102490348A2
:1024800000F04DF810BD00000004000100540040B1
:1024900010B5024800F0A0F910BD00006C0B002040
:1024A00010B50549054800F0FAF818B1024903488B
:1024B00000F035F810BD0000000400010058004095
:1024C00010B5024800F088F910BD00000C0C002087
:1024D00021B1028842F48062028004E002884FF653
:1024E000FF331A400280704770B50446FFF72AFE9A
:1024F000054613E04FF40031206C00F0B3F80128DA
:1025000001D0012070BDB4F84E6032460023284649
:102510001946FEF74BFC08B10220F3E7EAE7002278
:1025200021F07F42D3438382704721B1028842F079
:102530000102028004E002884FF6FE731A40028016
:10254000704721B1828842F40062828004E0828870
:102550004FF2FF731A408280704721B1828842F4A3
:102560008052828004E082884EF6FF731A40828097
:10257000704700002DE9F04104460F4615461E46FF
:1025800017B1032F20D10FE01149606B0860206C58
:1025900010304860084685604020C86008460661E3
:1025A000A06BFEF721FE10E0094960690860206C0D
:1025B00010304860084685600020C8600846066103
:1025C000A069FEF711FE00E000BF00BFBDE8F0818A
:1025D000AC0C002010B504461348844209D10121F7
:1025E000480501F0C7FE00214FF4001001F0C2FEC3
:1025F00018E00E48844209D10121880501F0BAFE95
:1026000000214FF4800001F0B5FE0BE00848844241
:1026100008D10121C80501F0ADFE00214FF40000F2
:1026200001F0A8FE10BD000000540040005800401A
:10263000005C004021B1028842F48072028004E014
:1026400002884FF6FF631A400280704721B102886A
:1026500042F40072028004E002884FF6FF531A40F1
:10266000028070470CB502460020002301930093BE
:1026700000920B0F019321F07F41019B1BB1009B46
:102680001433009303E0090C009B18330093009B64
:102690001B680B4201D0012000E000200CBD30B5CA
:1026A000024600200023948801F0E06504EA154307
:1026B00021F07F41948A0C4202D00BB1012000E04E
:1026C000002030BD10B501460020002300228B8A77
:1026D0000A8B120443EA020424F07F4010BD1AB1B1
:1026E00083880B43838002E083888B438380704719
:1026F0002DE9FF4704460D460026B1460427DFF8C2
:10270000CC80A6884FF6C0700640684601F062FE95
:10271000DDF808802E48B8FBF0F01FFA80F946EA91
:102720000906A68020884FF6FE710840208000260A
:102730002849286888420CD828684000B8FBF0F087
:1027400087B2042F00DA04273E4309F101002084F8
:1027500027E0E888A0F53F41FF3906D1286800EB63
:102760004000B8FBF0F087B209E0286800EBC00138
:1027700001EB0010B8FBF0F087B247F48047380552
:10278000000D01D147F0010747F4004006434FF424
:10279000967009FB00F04FF47A7190FBF1F0401C49
:1027A0002084A683208840F00100208026884FF6F0
:1027B000F5300640A8886989084306432680A88921
:1027C000298908432081BDE8FF87000000127A00B4
:1027D00040420F00A086010070B50446206CFFF750
:1027E00071FF754A811A904270D006DC6FF4403157
:1027F000401809D001286AD1AAE0A1F58021423908
:102800002DD00229F7D14CE094F84C0020B10228D9
:102810000DD0032820D115E094F820100022206C60
:1028200000F0CFFA0821204602F04AFF15E094F8A4
:1028300020100022206C00F0C4FA0921204602F08A
:102840003FFF0AE021780122206C00F0BAFA0A2149
:10285000204602F035FF00E000BF00BFAAE0636C35
:102860005A1C62641978206C00F0B3FA4820005DAD
:10287000401EC1B2482001550B21204602F020FF26
:1028800094F84C0001280BD10021206CFFF720FEAA
:102890000121206CFFF7DAFE1021204602F010FF24
:1028A00088E04820005D98B1636C5A1C6264197816
:1028B000206C00F08EFA4820005D401EC1B2482016
:1028C00001550C21204602F0FBFE40E04FE070E095
:1028D00094F84C0060BB3020005D68B1012826D11F
:1028E0000121A06BFEF77AFB042084F84C000D2137
:1028F000204602F0E5FE1AE0D4E90A1081420ED229
:10290000656A6A1C62622978206C00F062FAA06A2B
:10291000401CA0620E21204602F0D2FE07E00121F9
:10292000206CFFF793FE0F21204602F0C9FE0EE057
:1029300094F84C0002280AD10121206CFFF77AFE9E
:10294000032084F84C001121204602F0B9FE31E04A
:10295000207C01280AD10121A069FEF73FFB042059
:1029600084F84C001221204602F0AAFE22E0207CCE
:10297000F0B9D4E90210401E81420BD10021206C35
:10298000FFF7A6FD0121206CFFF760FE1421204611
:1029900002F096FE206C00F0BFF86268511C616086
:1029A0001070A068401CA0601321204602F088FE31
:1029B00000E000BF00BF70BD4000030070B50446DA
:1029C000FFF7C0FB054611E00949206CFFF74AFEFE
:1029D00008B1012070BDB4F84E603246002328468D
:1029E0001946FEF7E3F908B10220F3E7ECE700002F
:1029F00004000010F0B585B005460E461746049554
:102A0000012004A93C231A4601ACC1C40091032152
:102A10000A4800F019F90446012C02D008A002F07F
:102A200069F80648FFF760FD0446012C02D00EA0AD
:102A300002F060F8204605B0F0BD00006C0B0020ED
:102A4000202020202A20484D433538202D20526553
:102A5000717565737420746F2057726974652054A2
:102A6000494D454F55540000202020202A20484D34
:102A7000433538202D2057726974652054494D45DF
:102A80004F555400F0B585B005460E4617460495DF
:102A9000012004A9D0231A4601ACC1C4009103212E
:102AA0000A4800F0D1F80446012C02D008A002F038
:102AB00021F80648FFF718FD0446012C02D00EA0AD
:102AC00002F018F8204605B0F0BD00006C0B0020A5
:102AD000202020202A204D505536303530202D2002
:102AE0005265717565737420746F2052656164203E
:102AF00054494D454F555400202020202A204D5048
:102B00005536303530202D20526561642054494DB2
:102B1000454F5554000000000146088AC0B2704776
:102B200070B586B005460E460595012005AACDE98B
:102B300000203C231A460021CDE902600A4800F03B
:102B400083F80446012C02D008A001F0D3FF064808
:102B5000FFF7CAFC0446012C02D00EA001F0CAFF08
:102B6000204606B070BD00006C0B00202020202005
:102B70002A20484D433538202D20526571756573E4
:102B80007420746F2057726974652054494D454F05
:102B900055540000202020202A20484D433538205D
:102BA0002D2057726974652054494D454F55540086
:102BB00070B586B005460E460595012005AACDE9FB
:102BC0000020D0231A460021CDE902600A4800F017
:102BD0003BF80446012C02D008A001F08BFF064808
:102BE000FFF782FC0446012C02D00FA001F082FF07
:102BF000204606B070BD00006C0B00202020202075
:102C00002A204D505536303530202D2052657175B3
:102C100065737420746F2057726974652054494D30
:102C2000454F555400000000202020202A204D5000
:102C30005536303530202D2057726974652054493F
:102C40004D454F55540000002DE9FF5F04461646E0
:102C50001F46DDE90EABDDE910854FF00009204687
:102C6000FFF742FC00287DD00021204602F028FD1D
:102C7000019820B1012842D0032874D154E00020EB
:102C800084F84C0084F820602770C4F844A084F8CD
:102C900048B03020005D88B101282ED1E5622B4676
:102CA000424600212046FFF765FC0121206CFFF71A
:102CB0000FFC0121204602F003FD1EE0E562002129
:102CC000A162C4F82480894606E018F80910606AF9
:102CD00000F8091009F10109A945F6D30121206C7A
:102CE000FFF7F6FB01224FF4C061206CFFF7F7FC01
:102CF0000221204602F0E4FC00BF00BF4EE00020AD
:102D000084F84C0084F820602770C4F844A084F84C
:102D100048B00021E1620121206CFFF7D9FB0321BB
:102D2000204602F0CDFC39E0022084F84C0084F803
:102D300020602770C4F844A084F848B0207CB0B16B
:102D4000012828D1012D00D102252B46424603211E
:102D50002046FFF70FFC0121206CFFF7FEFB04214A
:102D6000204601E02BE018E002F0AAFC13E0E56049
:102D70000020A060C4F804800121206CFFF7A8FBAC
:102D800001224FF4C061206CFFF7A9FC0521204609
:102D900002F096FC00BF00BF00E000BF00BF0621AC
:102DA000204602F08DFC0121206CFFF743FC072137
:102DB000204602F085FC012004B0BDE8F09F002011
:102DC000FAE712B141F0010101E001F0FE010182D8
:102DD00070470182704700001848007838B31748E0
:102DE00090F907003B2806DA1448C079401C40B22D
:102DF0001249C87121E0114890F906003B2808DA11
:102E000000200E49C87108468079401C40B2887184
:102E100013E00A4890F905003B2809DA0020074929
:102E2000C871887108464079401C40B2487104E07E
:102E300000200249C871887148717047600B0020FA
:102E400010B504A001F056FE0DA001F053FE01F0F4
:102E50003BFC10BD5F5F5F5F5F5F5F5F5F5F5F5FFA
:102E60005F5F5F5F5F5F5F5F5F5F5F5F5F5F5F5F72
:102E70005F5F5F5F5F5F5F5F5F5F5F5F00000000DE
:102E8000496E697469616C697A652044494749549F
:102E9000414C2E2E2E0000001CB50121022001F015
:102EA00049FA25A001F026FE2EA001F023FE4FF4E2
:102EB0004060009002208DF8040003208DF805008A
:102EC00001208DF8060000208DF8070069462B4888
:102ED000FFF79AF804220A212848FFF7DDF80422B8
:102EE0000B212648FFF7D8F864202549A1F84E00A9
:102EF000244808640121224880F830104FF06061B6
:102F00004163214981632149C1632F2180F8311038
:102F100001201B4908744FF0606048611A487838F6
:102F200088611B48C8610D2048741A49144800F094
:102F300051F901201CBD00005F5F5F5F5F5F5F5F55
:102F40005F5F5F5F5F5F5F5F5F5F5F5F5F5F5F5F91
:102F50005F5F5F5F5F5F5F5F5F5F5F5F5F5F5F5F81
:102F6000000000000A496E697469616C697A652025
:102F7000454550524F4D2E2E2E00000000040240B9
:102F80000C0C002000580040B8600240008000286F
:102F900000802010801A06002DE9F04F87B0002035
:102FA0004FF0404103F030FB804600225A4BFDF7C2
:102FB00079FA06464FF00042584BFDF776FA044680
:102FC000FDF7CEFB834656A001F094FD5FA001F013
:102FD00091FDFEF791FA624A62496348FEF75AFE94
:102FE0006249087008460078102807D060A001F0F8
:102FF00081FD5E48007807B0BDE8F08F64A001F065
:1030000079FD5749D1E90101CDE900015648016830
:1030100002918088ADF80C005148036804A8039A17
:10302000FEF7F8FC634804A90EC90EC00C380EC8A0
:1030300003A8FEF715F9604803A91EC91EC0494937
:10304000B1F90000FDF712FB5C4908604549B1F990
:103050000200FDF70BFB594948604249B1F90400F1
:10306000FDF704FB5549886053480068C860524822
:10307000406808615048806848614F48C06888616E
:103080004F48C0F800B0C0F820B0C0F840B04FF0D2
:10309000000A1BE04FEAEA710AEB5171C910BAEB62
:1030A000C1010BD1474A52F82A10474A52F82A0068
:1030B000FDF786F8444941F82A0005E0424850F8F7
:1030C0002A00414941F82A000AF1010ABAF1310FF8
:1030D000E0DB384908683D49FDF7CAF80446FDF7CA
:1030E000FFFA00B23A49C883324948683749FDF7C8
:1030F000BFF80446FDF7F4FA00B2354908842D49BB
:1031000088683249FDF7B4F80446FDF7E9FA00B2E1
:103110002F49488401206EE70000F03F9999993FBC
:103120005F5F5F5F5F5F5F5F5F5F5F5F5F5F5F5FAF
:103130005F5F5F5F5F5F5F5F5F5F5F5F5F5F5F5F9F
:103140005F5F5F5F5F5F5F5F00000000496E6974F3
:1031500069616C697A6520454B462E2E2E00000071
:1031600034060020F2030020EC03002014000020AD
:10317000202D20454B46204641494C20746F206746
:103180006574206669727374204461746121000063
:10319000202D20454B462050726F70616761746529
:1031A00020696E697469616C2073746174652E2E78
:1031B0002E000000FC050020140600205806002008
:1031C00018000020DC000020280300200000C84276
:1031D000B40D002030B585B004460D466D49206C15
:1031E000884204D10121480501F0B4F810E06A4991
:1031F000206C884204D10121880501F0ABF807E07A
:103200006649206C884203D10121C80501F0A2F86B
:10321000206CFFF7DFF90020ADF808004BF6FF70D7
:10322000ADF80A000020ADF80C004FF48060ADF856
:103230000E000001ADF81000019501A9206CFFF708
:1032400057FA0121206CFFF770F900208DF801007A
:1032500001208DF802008DF803004E49206C884251
:1032600003D11F208DF800000EE04B49206C8842EE
:1032700003D121208DF8000006E04849206C8842E7
:1032800002D148208DF80000684601F017F80122AD
:103290004FF4C061206CFFF722FA3020005D012856
:1032A00037D13120005D8DF80000684601F006F846
:1032B00001221021A06BFDF779FFA06BFDF79AFEAC
:1032C0003749606B0860206C10304860002048610E
:1032D0004FF4806088610020C861086248624FF442
:1032E000403088620420C8620320086300204863DD
:1032F0008863A06BFDF778FF0121480501F01AF8FB
:1033000001221021A06BFDF751FF0121206CFFF776
:1033100018F9207C01283AD10121400501F00AF872
:10332000607C8DF80000684600F0C8FF0122102183
:10333000A069FDF73BFFA069FDF75CFE18496069D5
:103340000860206C10304860002048614FF48060B5
:1033500088610020C861086248624FF4403088628A
:103360000420C86203200863002048638863A069C2
:10337000FDF73AFF0121480500F0DCFF0122102192
:10338000A069FDF713FF0121206CFFF7DAF805B003
:1033900030BD00000054004000580040005C004078
:1033A000AC0C00201CB5012448A001F0A3FB52A0E6
:1033B00001F0A0FB0121022000F0BCFF4FF440709F
:1033C000009002208DF8040003208DF805000120F4
:1033D0008DF8060000208DF8070069464C48FEF77E
:1033E00013FE042208214A48FEF756FE0422092152
:1033F0004748FEF751FE0121464880F83010490643
:103400004163454981634549C163112180F8311009
:10341000012040490874400648613F48903888615F
:103420003F48C8610B2048746420A1F84E003D4815
:1034300008643D493748FFF7CDFE6420FEF79AFD4A
:103440003AA001F057FB00F007FD01281FD101222F
:103450001146002000F07AFE012800D0052400204B
:1034600000F01AFE012800D00524002000F064FDC1
:10347000012800D00524002000F0B8FD012800D06C
:103480000524072000F0E2FE012800D005242CA02E
:1034900001F030FBFEF796FF012814D1002206212F
:1034A0001046FEF755FE012800D004240020FEF748
:1034B000CBFE012800D0042400210846FEF71AFFA5
:1034C000012800D0042420461CBD00005F5F5F5F20
:1034D0005F5F5F5F5F5F5F5F5F5F5F5F5F5F5F5FFC
:1034E0005F5F5F5F5F5F5F5F5F5F5F5F5F5F5F5FEC
:1034F0005F5F5F5F00000000496E697469616C691D
:103500007A6520493243204275732E2E2E0000002A
:10351000000402406C0B0020A060024000802020CC
:103520002080001000540040801A0600202D2053F7
:1035300065747570204D50553630353000000000F0
:10354000202D20536574757020484D43353838332D
:10355000000000000EB50121082000F0EBFE4FF442
:103560004070019002208DF8080000208DF80A00BC
:103570008DF80B0003208DF8090001A92648FEF7FD
:1035800043FD072208212448FEF786FD0722092172
:103590002148FEF781FD214821490864272081F850
:1035A0004400012081F82000C1061D4841631D49E7
:1035B00081630E2180F83C10012019490870C00673
:1035C00048611848303888610C2008774FF416514C
:1035D000134801F021FF01F01BF900203223124AA9
:1035E000014600900E4801F00FFE10A001F082FA93
:1035F0000FA001F07FFA16A001F07CFA1CA001F0E8
:1036000079FA13A001F076FA09A001F073FA20A06C
:1036100001F070FA0EBD0000000C024000480040AE
:10362000300D0020586002402A0500200A0A0000E0
:10363000202020202020203D3D3D3D3D3D3D3D3D85
:103640003D3D3D3D3D3D3D3D3D3D3D3D3D00000061
:10365000202020202020207C7C20202020202020B2
:1036600020202020202020202020207C7C00000002
:10367000202020202020207C7C2020202020204270
:10368000616C6150692020202020207C7C0000009B
:1036900020202020202020202020766E643233310C
:1036A00030393240676D61696C2E636F6D200A009E
:1036B000FEB504460E4615465448844207D1012102
:1036C000084600F067FE52A001F014FA8DE0B4F154
:1036D000804F07D10121084600F03CFE50A001F0C8
:1036E00009FA82E05248844207D10121022000F009
:1036F00031FE50A001F0FEF977E05248844207D134
:103700000121042000F026FE4FA001F0F3F96CE047
:103710005148844207D10121082000F01BFE4FA030
:1037200001F0E8F961E05148844207D101211020FD
:1037300000F010FE4EA001F0DDF956E05048844242
:1037400007D10121202000F005FE4EA001F0D2F9A2
:103750004BE05048844207D10121022000F01AFEBC
:103760004DA001F0C7F940E04F48844207D1012144
:10377000080400F00FFE4DA001F0BCF935E04F4801
:10378000844207D10121480400F004FE4CA001F05E
:10379000B1F92AE04F48844207D10121880400F0A2
:1037A000F9FD4DA001F0A6F91FE05048844207D171
:1037B0000121402000F0CEFD4DA001F09BF914E066
:1037C0005048844207D10121802000F0C3FD4EA063
:1037D00001F090F909E05148844206D10121801599
:1037E00000F0B8FD4EA001F085F9701E0190681E32
:1037F00080B2ADF800000020ADF80800ADF802007E
:103800006946204601F010FCFEBD000000000140AA
:1038100020202B2054494D3120436F6E666967008C
:1038200020202B2054494D3220436F6E666967007B
:103830000004004020202B2054494D3320436F6E5C
:10384000666967000008004020202B2054494D3451
:1038500020436F6E66696700000C004020202B201B
:1038600054494D3520436F6E666967000010004073
:1038700020202B2054494D3620436F6E6669670027
:103880000014004020202B2054494D3720436F6EF8
:10389000666967000004014020202B2054494D3800
:1038A00020436F6E666967000040014020202B2096
:1038B00054494D3920436F6E6669670000440140EA
:1038C00020202B2054494D313020436F6E666967AC
:1038D000000000000048014020202B2054494D31B9
:1038E0003120436F6E6669670000000000180040D9
:1038F00020202B2054494D313220436F6E6669677A
:1039000000000000001C004020202B2054494D31B5
:103910003320436F6E66696700000000002000409E
:1039200020202B2054494D313420436F6E66696747
:1039300000000000F0B587B004460E461746454823
:10394000844201D11B252BE0B4F1804F01D11C250D
:1039500026E04148844201D11D2521E03F488442B0
:1039600001D11E251CE03E48844201D1322517E0DA
:103970003C48844201D1362512E03B48844201D1C3
:1039800037250DE03948844201D12E2508E037481B
:10399000844201D12E2503E03548844200D1182508
:1039A000E8B28DF8180000208DF8190001208DF87C
:1039B0001A008DF81B0006A800F080FC0020ADF86E
:1039C00004000120ADF806000020ADF810000397B8
:1039D00016F0010F0BD001A9204601F0F9F90122E0
:1039E0000221204601F0EBF922A001F083F806F055
:1039F000020002280BD101A9204601F027FA01227A
:103A00000421204601F0DBF923A001F073F806F051
:103A1000040004280BD101A9204601F069FA012213
:103A20000821204601F0CBF924A001F063F806F04C
:103A3000080008280BD101A9204601F0A9FA0122AB
:103A40001021204601F0BBF925A001F053F807B082
:103A5000F0BD0000000001400004004000080040EC
:103A6000000C004000100040001400400004014021
:103A70000040014020202B204368616E6E656C2061
:103A8000313A204F757470757420436F6D70617298
:103A900065206D6F6465000020202B204368616EF7
:103AA0006E656C20323A204F757470757420436FC8
:103AB0006D70617265206D6F6465000020202B20A1
:103AC0004368616E6E656C20333A204F7574707573
:103AD0007420436F6D70617265206D6F64650000C6
:103AE00020202B204368616E6E656C20343A204F95
:103AF000757470757420436F6D70617265206D6FA1
:103B00006465000070B58AB005460C46164605A8E7
:103B100001F07AFA6020ADF814000120ADF816002B
:103B20000020ADF818000796ADF820000820ADF889
:103B300022000020ADF82400ADF8260014F0010F9B
:103B400006D005A9284601F043F91FA000F0D2FFD6
:103B500004F00200022806D105A9284601F076F9F2
:103B60001FA000F0C7FF04F00400042806D105A937
:103B7000284601F0BDF920A000F0BCFF04F00800C9
:103B8000082807D105A9284601F002FA20A000F074
:103B9000B1FF16E02448854202D02448854210D166
:103BA00001A801F0D7F80020ADF808004FF48040DC
:103BB000ADF810000011ADF8060001A9284601F08B
:103BC000B9F80AB070BD000020202B204368616E58
:103BD0006E656C20313A2050574D206D6F64650042
:103BE00020202B204368616E6E656C20323A205095
:103BF000574D206D6F64650020202B204368616E57
:103C00006E656C20333A2050574D206D6F6465000F
:103C100020202B204368616E6E656C20343A205062
:103C2000574D206D6F6465000000014000040140A5
:103C300010B511A000F05EFF1AA000F05BFF44F287
:103C4000A0124FF6FF711C48FFF732FD42F21072CE
:103C500001211948FFF76EFE0A2202211648FFF7DC
:103C600069FE4FF4FA7204211348FFF763FE012145
:103C7000114801F07BF810BD5F5F5F5F5F5F5F5FC2
:103C80005F5F5F5F5F5F5F5F5F5F5F5F5F5F5F5F44
:103C90005F5F5F5F5F5F5F5F5F5F5F5F5F5F5F5F34
:103CA00000000000496E697469616C697A6520548E
:103CB000696D65722E2E2E000004014000B59BB088
:103CC00040A000F017FF4AA000F014FF01214F4868
:103CD00000F030FB0121080200F05CFBFCF764FF00
:103CE0004B48FDF787F9002002904A4803904A4864
:103CF0000490002005900A200690002007904FF4C1
:103D0000806008904000099080000A9040110B905C
:103D100040020C9000200D9001200E9000200F908A
:103D2000109002A93A48FDF75FFA01213848FDF7E3
:103D300055F90120009003208DF8040000208DF833
:103D4000070069463548FEF75FF900201190129090
:103D50001390149011A8FCF7F5FE002015908DF833
:103D6000580001208DF859000020179019900A2062
:103D70008DF8680015A92A48FCF722FF00230122CC
:103D800008212748FCF746FF01212548FCF701FFE1
:103D900001212348FCF7F2FE01212148FCF7C6FE71
:103DA0001F48FCF793FFC820FDF74AFAFCF794FF81
:103DB00018B11CA000F09EFE02E020A000F09AFEC8
:103DC0001BB000BD5F5F5F5F5F5F5F5F5F5F5F5FF7
:103DD0005F5F5F5F5F5F5F5F5F5F5F5F5F5F5F5FF3
:103DE0005F5F5F5F5F5F5F5F5F5F5F5F000000005F
:103DF000496E697469616C697A6520566F6C7420CC
:103E0000466565646261636B2E2E2E0002004000E1
:103E1000106402404C22014064050020000402406E
:103E200000200140202D2042617465727920636575
:103E30006C6C20646574656374656400202D204299
:103E400061746572792063656C6C206E6F74206498
:103E5000657465637465640008B5684600F00AF827
:103E6000012805D19DF80000682801D1012008BD76
:103E70000020FCE710B50446012221467520FEF71C
:103E800001FE012801D0002010BD0120FCE7000048
:103E90002DE9FF4704460D4616461F46DDE90C890D
:103EA0000E2269463B20FEF7EDFD01283DD19DF82D
:103EB00001009DF8001040EA012000B21D4948822F
:103EC00038809DF803009DF8021040EA012000B2FE
:103ED00018498882A8F800009DF805009DF8041094
:103EE00040EA012000B21349C882A9F800009DF8F9
:103EF00009009DF8081040EA012000B20D498881B0
:103F000020809DF80B009DF80A1040EA012000B2C5
:103F10000849C88128809DF80D009DF80C1040EAE2
:103F2000012000B2034908823080012004B0BDE8BE
:103F3000F0870000B40D00207CB5044600200090FE
:103F40000025012269461C20FEF79CFD012801D0B6
:103F500000207CBDA4F58070FF380DD09DF80000D6
:103F600000F0E7000090E0069DF8001041EA1060C4
:103F70000090E8B240F0180569461C20FEF718FED4
:103F8000012801D00020E4E7012201A91C20FEF74E
:103F900079FD012801D00020DBE79DF804000749E6
:103FA00008779DF804009DF80010884204D004A012
:103FB00000F0A0FD0020CCE70120CAE78505002025
:103FC0002020202B204D505536303530202D2052CA
:103FD0006567697374657220414343454C5F434F85
:103FE0004E464947204661696C0000007CB5044696
:103FF000002000900025012269461A20FEF742FDAC
:10400000012801D000207CBDA4F58070FF380CD0C1
:104010009DF8000000F0F8000090E0B29DF800105C
:1040200008430090E8B240F0070569461A20FEF701
:10403000BFFD012801D00020E5E7012201A91A20D7
:10404000FEF720FD012801D00020DCE79DF80400E8
:10405000074988769DF804009DF80010884204D036
:1040600004A000F047FD0020CDE70120CBE70000D1
:10407000850500202020202B204D5055363035302E
:10408000202D20526567697374657220434F4E4638
:104090004947204661696C007CB5044600200090C9
:1040A0000025012269461B20FEF7ECFC012801D007
:1040B00000207CBDA4F58070FF380DD09DF8000075
:1040C00000F0E7000090E0069DF8001041EA106063
:1040D0000090E8B240F0180569461B20FEF768FD25
:1040E000012801D00020E4E7012201A91B20FEF7EE
:1040F000C9FC012801D00020DBE79DF80400074936
:10410000C8769DF804009DF80010884204D004A0F1
:1041100000F0F0FC0020CCE70120CAE78505002074
:104120002020202B204D505536303530202D205268
:1041300065676973746572204759524F5F434F4EEC
:10414000464947204661696C000000002DE9FC41AA
:1041500004460D46164600200090002701226946BD
:104160006B20FEF78FFC012802D00020BDE8FC8107
:10417000A4F58070FF380DD09DF8000000F0BF005E
:104180000090A0079DF8001041EA10600090F8B27E
:1041900040F04007A5F58070FF380DD09DF8000075
:1041A00000F07F000090E8069DF8001041EA1060E2
:1041B0000090F8B240F08007A6F58070FF380CD070
:1041C0009DF8000000F0F8000090F0B29DF800109B
:1041D00008430090F8B240F0070769466B20FEF7ED
:1041E000E7FC012801D00020C0E7012201A96B20D3
:1041F000FEF748FC012801D00020B7E79DF8040035
:10420000074981F86B009DF804009DF80010884272
:1042100004D004A000F06EFC0020A7E70120A5E771
:10422000850500202020202B204D5055363035307C
:10423000202D205265676973746572205057525F54
:104240004D474D545F31204661696C0001B582B025
:1042500002A91920FEF7ACFC012801D000200EBDF8
:10426000012201A91920FEF70DFC012801D0002030
:10427000F5E79DF80400074948769DF804009DF88D
:104280000810884204D004A000F034FC0020E6E7C7
:104290000120E4E7850500202020202B204D5055EB
:1042A00036303530202D2052656769737465722071
:1042B000534D504C5254204661696C0070B500213A
:1042C00000230F22C47824B3174C246804F4E0645C
:1042D000C4F5E064C4F30721C1F10404E3B20A4168
:1042E00044789C40E1B28478144021430C07210EAD
:1042F0000E4C05786155047804F01F050124AC408C
:1043000005786D114FF0E02606EB8505C5F80041F4
:1043100009E0047804F01F040125A540044C067848
:10432000761144F8265070BD0CED00E000E400E08A
:1043300080E100E029B1064A12680243044B1A608A
:1043400004E0034A12688243014B1A607047000080
:104350003038024029B1064A12680243044B1A6001
:1043600004E0034A12688243014B1A607047000060
:104370004038024029B1064A12680243044B1A60D1
:1043800004E0034A12688243014B1A607047000040
:104390002038024029B1064A12680243044B1A60D1
:1043A00004E0034A12688243014B1A607047000020
:1043B0004438024029B1064A12680243044B1A608D
:1043C00004E0034A12688243014B1A607047000000
:1043D00024380240F0B500210022002402250026E6
:1043E0000223324F3F6807F00C0121B1042905D0A8
:1043F000082937D105E02E4F076036E02D4F0760C2
:1044000033E02A4F3F1F3F68C7F38056274F3F1FB7
:104410003F6807F03F036EB1264FB7FBF3F7DFF8B5
:104420008CC0ACF1040CDCF800C0CCF3881C07FB9A
:104430000CF40CE01E4FB7FBF3F7DFF870C0ACF1E3
:10444000040CDCF800C0CCF3881C07FB0CF4174FFD
:104450003F1F3F68C7F301477F1C7D00B4FBF5F7A2
:10446000076002E0124F076000BF00BF0F4F3F68B8
:1044700007F0F0010909104F7A5C0768D7404760E0
:104480000A4F3F6807F4E051890A0B4F7A5C47688E
:10449000D7408760054F3F6807F46041490B064FDE
:1044A0007A5C4768D740C760F0BD0000083802401A
:1044B0000024F40000127A001A05002010B504460A
:1044C0006648007800287DD000206549087065485E
:1044D00090F90000152802DB00206249087061484D
:1044E00090F9000000EB40005F4908565F490978E9
:1044F000884206D15A480078401C40B2584908709A
:1045000020E0584890F9000000EB4000564908565A
:1045100056490978884205DD54480078401C5349C3
:1045200008700FE04F4890F9000000EB40004E4942
:1045300008564E490978884204DA4C480078401EF3
:104540004A490870474890F9000000EB400046498E
:10455000084490F9010046490978884206D140484C
:104560000078401C40B23E49087024E03D4890F974
:10457000000000EB40003C49084490F901003C4930
:104580000978884205DD3A480078401C38490870AF
:1045900011E0344890F9000000EB40003249084433
:1045A00090F9010032490978884204DA30480078ED
:1045B000401E2F4908702B4890F9000000EB400086
:1045C000294900E049E0084490F9020029490978A6
:1045D000884206D122480078401C40B22049087029
:1045E00024E0204890F9000000EB40001E490844F8
:1045F00090F902001F490978884205DD1D480078BE
:10460000401C1C49087011E0164890F9000000EBAE
:1046100040001549084490F902001649097888427B
:1046200004DA14480078401E124908700C4890F9CA
:104630000000032805DB0B480078401C40B2094904
:1046400008700C48007843B20948007842B2074825
:10465000007841B2204600F085F810BDF704002034
:10466000FC040020FB040020B8040020F804002013
:10467000FA040020F904002010B5044614B1012CFE
:1046800012D108E00F490C7000231A46194618464B
:1046900000F068F813E00B490C7064231A461946C1
:1046A000184600F05FF80AE00648007818B10020CC
:1046B000FFF7E2FF02E00120FFF7DEFF00BF00BFCF
:1046C00010BD0000F70400201CB51DA000F012FA78
:1046D00001210846FFF72EFE4FF4E0600090022013
:1046E0008DF8040003208DF8050000208DF80600E9
:1046F0008DF8070069461948FDF786FC012209215B
:104700001648FDF7C9FC01220A211448FDF7C4FC34
:10471000012208211148FDF7BFFCA8224FF47A714D
:104720000F48FEF7C5FF002207210D48FFF7EAF901
:1047300001210B4800F01AFB0120FFF79DFF1CBD73
:10474000202D2053657475702052474220547269A1
:1047500070706C65204C4544000000000000024071
:10476000000001402DE9F84F07460C4615461E464D
:104770003846FBF77BFF82462249FBF779FD8146ED
:104780002149FBF7ABFD80462046FBF76FFF414612
:104790000090FBF76DFD83461B49FBF79FFD8246AA
:1047A000FBF7B7FF1FFA80F94946184800F03AFCBA
:1047B0002846FBF75BFF41460090FBF759FD834617
:1047C0001149FBF78BFD8246FBF7A3FF1FFA80F927
:1047D00049460E4800F024FC3046FBF747FF4146AF
:1047E0000090FBF745FD83460749FBF777FD8246BE
:1047F000FBF78FFF1FFA80F94946044800F00EFCD2
:10480000BDE8F88F00007A440000C8420000014073
:1048100038B50024AE48007810B101287AD1C7E03D
:10482000AC480078AC490978884213DB0021AB48DA
:10483000FCF7D4FB0020A8490870A6490870322371
:10484000A74A01460090A74800F0DEFC0120A049DD
:104850000870ACE00021A148FCF7C0FB42229D4853
:10486000007800EBC00101EB00109F4901EB400311
:104870002046641C1A5461229648007800EBC0015F
:1048800001EB0010984901EB40032046641C1A54C8
:104890006C229048007800EBC00101EB00109249B7
:1048A00001EB40032046641C1A54612289480078B9
:1048B00000EBC00101EB00108B4901EB40032046E7
:1048C000641C1A5470228348007800EBC00101EB8D
:1048D0000010854901EB40032046641C1A546922EC
:1048E0007C48007800EBC00101EB00107E4901EB31
:1048F00040032046641C1A542A227648007800EBB4
:10490000C00101EB0010784901EB40032046641C14
:104910001A5435E0DAE075486E49097850F82100FC
:10492000007880B90CE000226A48007800EBC001F2
:1049300001EB00106C4901EB40032046641C1A5443
:10494000322C1DDAEFE769486249097850F82100F6
:1049500002786048007800EBC00101EB001062496A
:1049600001EB40032046641C1A54604859490978F9
:1049700050F82100401C5D49564A127841F8220047
:10498000322CC8DB002000905248007800EBC001B8
:1049900001EB0010544901EB400232230021514841
:1049A00000F032FC4B480078401C4A4908708DE00A
:1049B0005F204B4988714E480078C8714C48407858
:1049C00008724B484088000A4872494880788872CB
:1049D00047488088000AC8724548007908734448EF
:1049E000C088000A4873424880798873404800892B
:1049F000000AC8733E48007A08743D484089000A9E
:104A000048743B48807A88743948408A000AC874E0
:104A10003748807C08753648808A000A48753448D3
:104A2000007D88753248C08A000AC8753048807D8C
:104A300008762F488089000A48762D48007B8876C2
:104A40002B48C089000AC8762948807B0877284807
:104A5000008A000A48772648007C88772448008B23
:104A6000000AC8772248007E81F820002048408B49
:104A7000000A81F821001E48807E81F822001C482F
:104A8000808B000A81F823001948007F81F82400F8
:104A90001748C08B000A81F825001548807F81F8EF
:104AA00026001348008C000A81F82700104890F86F
:104AB000200081F828000E48408C000A81F8290067
:104AC0000B4890F8220081F82A0000BF00BF38BDD3
:104AD0005C0500205E0500205D0500205860024056
:104AE0002A050020300D0020680F0020D80D00207E
:104AF000B40D002006490A780978491C044B197046
:104B0000044941F822000021034A11707047000057
:104B10005D050020D80D00205C0500200CB50020AC
:104B2000019000903448006840F4803032490860B9
:104B300000BF3148006800F4003000900198401C2C
:104B40000190009818B90198B0F5C06FF1D12A48CA
:104B5000006810F4003F02D00120009001E0002026
:104B600000900098012845D123484030006840F06B
:104B700080502149403108602048006840F440409E
:104B80001E4908601C48083000681B49083108604D
:104B90000846006840F4004008600846006840F499
:104BA000A05008601648091F0860081F006840F000
:104BB0008070091F086000BF0F48006810F0007F78
:104BC000FAD040F205600F4908600B4808300068D1
:104BD00020F003000849083108600846006840F0EA
:104BE0000200086000BF04480830006800F00C00B4
:104BF0000828F8D10CBD00000038024000700040C9
:104C000008544007003C02400848016840680023FF
:104C100059405840014308D0044802684068521E79
:104C200060F1000001490A6048607047A00400205C
:104C300010B51248006840F00100104908600020DB
:104C40000E49083108600D4800680D4908400B49BD
:104C500008600C48091D0860081F006820F48020C7
:104C6000091F0860002005490C310860FFF756FF56
:104C70004FF000600449086010BD00000038024099
:104C8000FFFFF6FE1030002408ED00E0704770478B
:104C900070477047704770477047704710B50221E2
:104CA000224800F07BF890B10221204800F05BF828
:104CB00000F0FCF91D4800F065F81D490880084621
:104CC000008842F210710144184800F0A7F904214D
:104CD000164800F063F880B10421144800F043F84E
:104CE00000F0E8F9114800F050F811490880084632
:104CF00001880A310D4800F093F908210B4800F0B3
:104D00004DF888B10821094800F02DF800F0DEF9CF
:104D1000064800F03DF8064908800846018801F57C
:104D2000FA71024800F07EF910BD00000004014055
:104D3000160500200A884B881A438B881A43CB88B3
:104D40001A430B891A434B891A438B891A43A0F8DB
:104D5000442070470021018041808180C180018111
:104D6000418181817047CA430282704721B1028824
:104D700042F00102028004E002884FF6FE731A40FE
:104D8000028070470146486B70470146886B704748
:104D90000146C86B70470146486A704730B5024605
:104DA000002000230024158A05EA0103958905EAFD
:104DB000010413B10CB1012000E0002030BD1AB194
:104DC00083890B43838102E083898B43838170470E
:104DD00070B5002400220023058C4FF6FE76354086
:104DE0000584028C8388048B4FF68F752C40B51E8A
:104DF0002C400D882C43751E2A408D892A434D88EE
:104E00002A43104DA84202D00F4DA84213D14FF6AD
:104E1000F7752A40CD892A434FF6FB752A408D88C5
:104E20002A434FF6FF652B404FF6FF552B400D8A66
:104E30002B434D8A2B43838004838D684563028412
:104E400070BD0000000001400004014070B5002466
:104E500000220023058C4FF6EF7635400584028C46
:104E60008388048B48F6FF752C404FF6FF452C4095
:104E70000D884FF6FF7606EA05252C434FF6DF75C1
:104E80002A408D8906EA05152A434D8806EA05154C
:104E90002A43154DA84202D0144DA8421DD14FF609
:104EA0007F752A40CD894FF6FF7606EA05152A431D
:104EB0004FF6BF752A408D8806EA05152A434FF63E
:104EC000FF352B404FF2FF752B400D8A06EA850512
:104ED0002B434D8A06EA85052B43838004838D6826
:104EE0008563028470BD00000000014000040140A1
:104EF00070B5002400220023058C4FF6FF66354074
:104F00000584028C8388848B4FF68F752C404FF676
:104F1000FC752C400D882C434FF6FF552A408D8997
:104F20004FF6FF7606EA05252A434D8806EA052551
:104F30002A43154DA84202D0144DA8421DD14FF26C
:104F4000FF752A40CD894FF6FF7606EA05252A43EC
:104F50004FF6FF352A408D8806EA05252A434EF68E
:104F6000FF752B404DF6FF752B400D8A06EA05159F
:104F70002B434D8A06EA05152B43838084838D6875
:104F8000C563028470BD00000000014000040140C0
:104F900070B5002200230024058C4EF6FF763540C4
:104FA0000584038C8488828B48F6FF752A404FF66F
:104FB000FF452A400D884FF6FF7606EA05252A436D
:104FC0004DF6FF752B408D8906EA05352B434D883C
:104FD00006EA05352B430A4DA84202D0094DA842E6
:104FE00008D14BF6FF752C400D8A4FF6FF7606EA86
:104FF00085152C43848082838D680564038470BD8D
:1050000000000140000401400021018041808180B6
:1050100081608181C1810182418270474163704713
:1050200081637047C163704700220288184B984221
:105030000ED0184B98420BD0B0F1804F08D0164BD1
:10504000984205D0154B984202D0154B984204D196
:105050004FF68F731A404B881A43124B984207D071
:10506000114B984204D04FF6FF431A400B891A4364
:1050700002804B68C3620B880385054B984202D0BF
:10508000044B984201D18B7A0386012383827047B7
:1050900000000140000401400004004000080040FE
:1050A000000C0040001000400014004000B5FDF767
:1050B00093FE00BD10B504480068401C024908601A
:1050C000FCF75EFF10BD0000B404002010B56420A2
:1050D000FFF7F4F910BD000010B540F225511C484F
:1050E00000F0E0F8A8B11A4800F0CCFAC4B21948B0
:1050F00081688068401C174A90601046406844549C
:10510000104680681146C968884202D300201146C3
:10511000886040F227710E4800F0C4F8B0B10D4825
:10512000836A806A401C0B4A90621046406AC15CE8
:10513000074800F0ACFA0748816AC06A814205D38B
:10514000002240F22771024800F0D6F810BD00009E
:1051500000440040E80C002010B540F225511D48E5
:1051600000F0A0F8A8B11B4800F08CFAC4B21A48AD
:1051700081688068401C184A90601046406844541A
:10518000104680681146C968884202D30020114643
:10519000886040F227710F4800F084F8C0B10E48D3
:1051A000836A806A401C0C4A90621046406AC15C67
:1051B000084800F06CFA0848816AC06A814207D347
:1051C000002240F22771034800F096F8FFF720FB19
:1051D00010BD000000480040300D002021B1828940
:1051E00042F40052828104E082894DF6FF731A4036
:1051F000828170471AB1838A0B43838202E0838ADB
:105200008B438382704700002DE9F04104460F462E
:1052100015461E46DDF8188017B1012F3DD121E05B
:105220000021A06BFBF7DAFE012084F8200084F84F
:1052300030801B49606B0860206C001D4860084688
:1052400085604020C86008460661A06BFBF7CCFF74
:1052500001221021A06BFBF7A9FF0121A06BFBF736
:10526000BDFE1AE00021A069FBF7B8FE0120207006
:105270000B4960690860206C001D48600846856025
:1052800006610020C860A069FBF7AEFF84F81080BB
:105290000121A069FBF7A2FE00BF00BFBDE8F081BD
:1052A000780D002070B50246002400230025002060
:1052B000A1F510666A3E00D100BFC1F3421501F0AE
:1052C0001F03012606FA03F3012D02D1968933400C
:1052D00006E0022D02D1168A334001E0968A33405F
:1052E0000C12012606FA04F41688344013B10CB1EE
:1052F000012000E0002070BDF0B503460024002628
:1053000000250020A1F510676A3F00D100BF1846B4
:10531000C1F3421401F01F06012707FA06F5012C1C
:1053200001D10C3004E0022C01D1103000E0143027
:105330001AB107682F43076002E00768AF430760B0
:10534000F0BD00002DE9FF4705460E460024A146AA
:1053500000BFA046B08900B100BF2C8A24F440549D
:10536000F08804432C82AC8941F20C608443B088FD
:1053700031890843718908430443AC81AC8A24F421
:105380004074B0890443AC826846FFF723F8204894
:10539000854202D01F48854202D1DDF80C9001E021
:1053A000DDF80890A88910F4004F08D009EBC90077
:1053B00000EB091031684900B0FBF1F707E009EB99
:1053C000C90000EB091031688900B0FBF1F76420D7
:1053D000B7FBF0F004012009642101FB1078A889D3
:1053E00010F4004F08D0322000EBC800B0FBF1F001
:1053F00000F00700044308E0322000EB08106421AD
:10540000B0FBF1F000F00F0004432C81BDE8FF87F2
:10541000001001400014014030B585B004460D462F
:105420008F49206C884204D101211020FEF7B2FF81
:105430002BE08C49206C884204D101214804FEF7FE
:1054400089FF22E08849206C884204D10121880428
:10545000FEF780FF19E08549206C884204D10121C4
:10546000C804FEF777FF10E08149206C884204D120
:1054700001210805FEF76EFF07E07E49206C884297
:1054800003D101212020FEF785FF01950020ADF812
:105490000800ADF80A00ADF80C00ADF810000C20C3
:1054A000ADF80E0001A9206CFFF74CFF94F8200026
:1054B00000284ED0012860D16F49A06B884204D2E9
:1054C00001214805FEF736FF03E001218805FEF7BC
:1054D00031FFA06BFBF78EFD6849606B08604020D0
:1054E000C860206C001D4860002048614FF4806057
:1054F00088610020C86108624FF4807048624002F1
:1055000088620420C862032008630020486388631F
:10551000A06BFBF769FE3C20005D8DF800000020C9
:105520008DF801008DF8020001208DF80300684617
:10553000FEF7C4FE01221021A06BFBF737FE01220B
:105540008021206CFFF756FE0021A06BFBF746FD83
:1055500013E094F844008DF8000000208DF802005C
:1055600001208DF803006846FEF7A8FE002240F2F5
:105570002771206CFFF7C0FE00BF00BF2078002815
:1055800053D0012865D13C49A069884204D2012149
:105590004805FEF7CFFE03E001218805FEF7CAFEAD
:1055A000A069FBF727FD3549606908600020C860E5
:1055B000206C001D4860002048614FF480608861C5
:1055C0000020C86108624FF480704862400288621F
:1055D0000420C86203200863002048638863606970
:1055E0000860274888600C200861A069FBF7FCFD73
:1055F000207F8DF8000000208DF801008DF802005A
:1056000001208DF803006846FEF758FE01221021A4
:10561000A069FBF7CBFD01224021206CFFF7EAFDDA
:105620000121A069FBF7DAFC13E094F844008DF83F
:10563000000000208DF8020001208DF8030068466C
:10564000FEF73CFE002240F22551206CFFF754FE8D
:1056500000BF00BF0121206CFFF7C0FD05B030BDC9
:10566000001001400044004000480040004C004051
:10567000005000400014014010640240780D0020EA
:105680000405002001468888C0F308007047C1F374
:10569000080282807047490050EAC12018BF0420E8
:1056A0004A0D18BF40F0010040F2FF72B2EB515FAB
:1056B00008BF40F00200012808BF05207047000025
:1056C00030B5124A1268502A1EDA104A136812685E
:1056D000521C0E4C226000F15002D154A1B900229C
:1056E00023461A6009E00023084A14681268521C15
:1056F000064D2A6000F150021355044A1268502AE0
:10570000F1DB0022014B1A6030BD000000050020D3
:105710002DE9F74F144696B00021C4E902111799FC
:10572000089121F00045CA498D4206DC1799C4E969
:10573000000119B00020BDE8F08FC649DFF818A3BA
:10574000A9423CDD0899C54E0029C54FC54A1799A5
:10575000534619DDFAF7A3FE554506D0C24AC34B9E
:10576000FAF79DFEC4E900010AE04FF0D352BF4BA7
:10577000FAF795FE32463B46FAF791FEC4E900017E
:1057800019B00120BDE8F08FFAF7E8FD554506D0C5
:10579000B54AB64BFAF7E2FDC4E900010AE04FF062
:1057A000D352B24BFAF7DAFD32463B46FAF7D6FD52
:1057B000C4E9000119B04FF0FF30BDE8F08FAC49EB
:1057C000A942179978DB21F000488346A94AAA4BE1
:1057D0004146FAF76AFE0022A84BFAF7BFFDFBF735
:1057E0000DF90990FAF75EFF06460F469D4A5346AB
:1057F000FAF75BFE5A464346FAF754FE80468A465D
:10580000994A9A4B30463946FAF74FFE2A0D012540
:105810000B9242465346FAF745FE032DC4E90001B8
:1058200039D00B98C1F30A51401A05EB45111139D3
:10583000814230DA9248C346784400EB0510CDF837
:105840001CA00C90D0E9002330463946FAF72DFE13
:10585000CDE9020102460B4658460799FAF71FFEAA
:1058600080468A4602460B4658460799FAF717FEC5
:10587000DDE90223FAF713FE83460C9803913946BB
:10588000D0E902233046FAF710FE5A46039BFAF796
:1058900006FE6D1CBDE708980028A2BF099819B044
:1058A000BDE8F08F616881F000416160099819B02E
:1058B0004042BDE8F08FFFE7C1F3130141F48011CE
:1058C0000E911799C1F30A51A1F2F532511102F06C
:1058D0001F08C8F12002129200220C920D92694A10
:1058E0007A4402EB810101F1140C0DA95FF0060767
:1058F000DCF80020DCF8045002FA08F3129AD1F820
:1059000000A025FA02F21A430E9BA2FB0356A2FB4B
:1059100000329A4415449A4534BF4FF0010B4FF0C2
:10592000000B51F8043C05EB0B0E7344954234BF59
:10593000012200221644BBF1000F02D0AB4202D973
:1059400003E0AB4201D2012200E000223244C1F860
:1059500000A041E90223091FACF1040C7F1EC7D14E
:105960000898DDE90A6500F10050800F1190089851
:10597000099F8000FAF796FE80468A463846FAF775
:10598000A2FE6FF01D02FAF7D1FF074630460591DF
:10599000FAF799FE6FF03D02FAF7C8FFCDE9031060
:1059A0002846FAF790FE6FF05D02FAF7BFFF064651
:1059B00002460B460191DDE90310FAF7CFFC3A46A7
:1059C000059BFAF7CBFC42465346FAF7C7FC00208A
:1059D0000D46834642465346FAF761FD3A46059B1B
:1059E000FAF75DFDDDE90332FAF759FD3246019B16
:1059F000FAF758FDDFF89480234A4346FAF755FD3D
:105A000006460F46224A234B58462946FAF74DFDD3
:105A100032463B46FAF7A2FC0F4606464FF0A84234
:105A2000434658462946FAF740FD32463B46FAF7C8
:105A300095FC179A12F0004F04D0119A81F00041A2
:105A400052421192C4E90001119819B0BDE8F08FDB
:105A5000FB21E93F7CD90240FB21F93F7370032E03
:105A60008A19A33B000040543163621A61B4D03DEF
:105A7000FB21394183C8C96D305FE43F0000E03F3E
:105A8000041400008C130000182D4454FB21F93D30
:105A90003326A611460B113C2DE9FF4D21F000489D
:105AA00007460C46B8F1795F08DAFAF7A7FF002835
:105AB00001BF0020324904B0BDE8F08D3A462346CC
:105AC00010461946FAF7F1FC054602462D480E46E7
:105AD0000B460621784400F05DF82A463346FAF773
