:020000040800F2
:10000000689A01209D010008A501000871390008C7
:10001000A9010008AB010008AD01000800000000C4
:10002000000000000000000000000000AF01000818
:10003000B101000800000000B30100088D6D000848
:10004000B7010008B7010008B7010008B7010008B0
:10005000B7010008B7010008B7010008B7010008A0
:10006000B7010008B7010008B7010008992500088A
:10007000E12500080926000851260008B7010008FC
:10008000B701000895260008B7010008B70100086D
:10009000B7010008B7010008B7010008B701000860
:1000A000ED6D0008316E0008F16D0008EF6D00087D
:1000B000716E0008736E0008756E0008453A0008FE
:1000C0001D3A0008793A0008513A0008B7010008C3
:1000D000B7010008C5720008B701000835730008B1
:1000E000B7010008B7010008B7010008B701000810
:1000F000B7010008B70100087D6E0008E52600087A
:10010000B7010008CD620008776E0008B70100084B
:10011000B7010008B7010008796E00087B6E00087F
:10012000B7010008B7010008352700085D2700085F
:10013000B7010008B7010008B7010008B7010008BF
:10014000B7010008B7010008B7010008B7010008AF
:10015000B7010008B701000885270008B7010008AB
:10016000B7010008B7010008B7010008B70100088F
:10017000B7010008B7010008B7010008B70100087F
:10018000B7010008B7010008DFF80CD000F0AAFCA6
:100190000048004711920008689A012006488047ED
:1001A00006480047FEE7FEE7FEE7FEE7FEE7FEE75C
:1001B000FEE7FEE7FEE7FEE79D6D00088901000807
:1001C00040EA01039B0703D009E008C9121F08C0D9
:1001D000042AFAD203E011F8013B00F8013B521E59
:1001E000F9D27047F0B480EA0102D40F4200B2EBBA
:1001F000410F02D20246084611464A0042D0C30DC2
:10020000DDB2C1F3C752AD1A202D35DAC1F31601A4
:1002100041F4000204B15242C5F1200602FA06F18F
:100220002A411044B3EBD05F23D0C4B1012DA0EB21
:10023000C35009DCF0BC4FF0004202EAC35200F5A3
:100240000000DBB200F041BB400000F1807000EB29
:10025000C350A0F1807040EAD170490009E049081C
:1002600041EAC071A0EBC35000F50000400800EB6C
:10027000C350F0BC00F020BB6142012202EB4101FF
:10028000001BF6E7F0BC704781F00041AAE780F060
:100290000040A7E780EA010210B502F000434000E9
:1002A00026D04A0023D04FEA106101EB1261C0F35F
:1002B0005600C2F3560240F4000042F40002A0FBD4
:1002C0000220A1F17F014FEA0040140401D000F1A7
:1002D000010050EA124001D44000491EC2B20C068F
:1002E00004EBD010401C4008802A02D003E000201C
:1002F00010BD20F00100002900DA0020184310BDD5
:1003000030B480EA010202F0004530F0004221F0F2
:10031000004015D0A0B1C0F3C753C2F3C754C2F315
:100320001601C0F31600E41A41F4000140F4000283
:100330007D34914201D3641C00E04900002C02DAB4
:1003400030BC002070474FF400000023914201D3DD
:10035000891A034340084FEA4101F7D151B1914254
:1003600002D14FF0004105E002D24FF0010101E05F
:100370006FF0010103EBC450284430BC00F09CBA7C
:10038000420005D0C0F3C7525242914201DC002026
:10039000704700EBC15070472DE9FE4F804681EA5F
:1003A0000300C00F0C46009021F0004123F00045EF
:1003B000B8EB0200A94105D24046214690461C46B2
:1003C0000B46024623F00040104304D1404621462C
:1003D00003B0BDE8F08F270DC7F30A00C3F30A513D
:1003E0000290401A0190402866DAC3F3130040F4EB
:1003F000801B0098924620B10023D2EB030A63EBE6
:100400000B0B01985946C0F14002504600F033FAF8
:1004100006460D4650465946019A00F03BFA10EB4D
:1004200008006141002487EA115284EAE7731A4305
:100430003BD0009A3AB3019A012A4FEA075210DCE6
:10044000001B61EB02014FF0004202EA0752CDE9C6
:100450000042001C41F5801132462B4600F06FFA35
:10046000B6E7001B61EB0201001C41F58013001888
:100470005B412018A2F5001747EB030140EAD57055
:10048000B6196D4111E06D084FEA360645EAC075B0
:100490004FEA0752001B61EB0201001C41F580117D
:1004A00049084FEA30000019514132462B4603B04B
:1004B000BDE8F04F00F036BA00980122400000235A
:1004C000D0EB020263EBE073009821464FEAE07440
:1004D000B8EB000061EB0401E9E783F000435BE760
:1004E00081F0004158E72DE9FE4F81EA030404F052
:1004F000004421F0004100944FF0000B23F0004332
:1005000050EA010402D052EA030404D1002001465B
:1005100003B0BDE8F08FC3F30A54C1F30A552C446D
:10052000A4F2F3340194A0FB0254C1F3130141F48B
:100530008011C3F3130343F4801301FB024400FB57
:10054000034E840A970A44EA815447EA8357A4FB7E
:10055000076802958D0A05FB07854FEA932C04FB7B
:100560000C542705029D4FEA065847EA1637B5EBAB
:1005700008056EEB070C870E920E47EA811742EAD8
:100580008312A7FB0201B6EB0B0164EB00042B0DF9
:1005900043EA0C335E1844EB1C50DA465146E7FB45
:1005A0000201C5F313044FEA0B3343EA14534FEA35
:1005B0000432019C43EA0603A4F10C040294009C5B
:1005C000CDE900B400F0BBF9A2E72DE9F04D81EAD6
:1005D000030404F0004B21F0004514464FF0000ADC
:1005E00023F0004150EA050220D054EA01021DD058
:1005F000C5F30A570246C5F31303C1F31300C1F351
:100600000A5640F4801543F48013A7EB0608101B2C
:10061000D64608F2FD3873EB050002D308F1010855
:1006200001E092185B41B8F1000F03DA00200146A7
:10063000BDE8F08D00204FF48011064684460EE0A0
:10064000171B73EB050705D3121B63EB050306436A
:100650004CEA010C49084FEA300092185B4150EA1D
:100660000107EDD152EA030012D082EA040083EAC6
:100670000501084303D100224FF0004308E0101B9E
:10068000AB4102D20122002302E06FF001025310BD
:100690001AEB06004CEB085110EB0A0041EB0B0182
:1006A000BDE8F04D00F03EB9C10F80EAE0700844AB
:1006B000CA079623002100F008B9962300221146AC
:1006C00000F003B930B4044696230800214604D054
:1006D000B62330BC002200F0F8B820460021F8E72D
:1006E00000F0004220F00040C10DC0F3160040F4BD
:1006F00000007F2901DA00207047962903DCC1F150
:100700009601C84001E096398840002AF4D0404262
:10071000704720F00040C10DC0F3160040F4000007
:100720007F2901DA00207047962903DCC1F1960188
:10073000C840704796398840704700F0004230F05A
:1007400000400AD0C10D01F56071C0F3160042EA05
:100750000151C2084007114370470020014670470D
:1007600030B5002904DB4FF00044404264EB010146
:10077000002B04DB4FF00044524264EB0303994228
:1007800008BF904230BD000001F0004330B421F0BA
:10079000004150EA010206D00A0DA2F56072C1F3D1
:1007A0001301002A02DC30BC00207047440F44EAE9
:1007B000C104C100E01830BC00EBC25000F07CB8AE
:1007C000002801DBC0F10040002901DBC1F100413C
:1007D00081427047002801DBC0F10040002901DBA5
:1007E000C1F100418842704730B50B4601460020F8
:1007F0002022012409E021FA02F59D4205D303FAE3
:1008000002F5491B04FA02F52844151EA2F1010263
:10081000F1DC30BD2DE9F05F0546002092469B4695
:1008200088460646814640241BE028464146474606
:10083000224600F069F953465A46C01A914110D336
:1008400011461846224600F016F82D1A67EB0108EB
:100850004F4622460120002100F00DF817EB000959
:100860004E41201EA4F10104DFDC484631462A46F1
:100870004346BDE8F09F202A04DB203A00FA02F14B
:10088000002070479140C2F1200320FA03F319437E
:1008900090407047202A06DBCB17203A41FA02F03D
:1008A00043EAE07306E041FA02F3D040C2F12002CD
:1008B00091400843194670470029A8BF7047401C63
:1008C000490008BF20F00100704710B4B0FA80FC66
:1008D00000FA0CF050EA010404BF10BC704749B1A3
:1008E000CCF1200421FA04F411FA0CF118BF012113
:1008F00021430843A3EB0C01CB1D0106000A002B8A
:10090000BEBF002010BC704700EBC350104400294C
:10091000A4BF10BC7047401C490008BF20F0010074
:1009200010BC704710B5002B08DA401C41F10001E3
:1009300092185B411A4301D120F0010010BD2DE94E
:10094000F04D92469B4611B1B1FA81F202E0B0FA45
:1009500080F220329046FFF78EFF04460F4640EAB1
:100960000A0041EA0B0153465A46084303D1204688
:100970003946BDE8F08D114653EA010015D0C8F1A3
:100980004002504600F0C0F805460E465046594613
:100990004246FFF770FF084301D0012000E000202D
:1009A000054346EAE0762C4337430A984FEA44531E
:1009B000A0EB08004FEAD4240A304FF0000244EACA
:1009C00047544FEAD72502D500200146D1E701055B
:1009D00010196941DDE9084500196941BDE8F04D8C
:1009E000A0E770B521F0004303430CD0C1F30A55D2
:1009F0000024D5EB040564EB0403D617AD1AB3410C
:100A000002DB0020014670BD201841EB025170BD91
:100A10002DE9F04D00231A461B1A8A4103DB002002
:100A20000146BDE8F08DC1F30A52C1F3130141F450
:100A300080154FF0000BD10702D100186D41521EF6
:100A40000027044640F2FF11384601EB620A3E4699
:100A50008046024600204FF4801100F055F8C2197C
:100A60007141BB1846EB0100B4EB030C75EB000CB5
:100A700004D3E41A65EB000517460E46241908F165
:100A800001006D4180463428E3DDF91946EB06008C
:100A9000091BA84103D24FF0FF32134601E00022A8
:100AA00013461BEB070046EB0A51BDE8F04DFFF77C
:100AB00039BFC1F30A52C1F3130140F2FF3341F4CD
:100AC00080119A4202DA00200146704740F2334317
:100AD0009A42A2F2334202DC524200F015B8FFF70C
:100AE000CABE0000064C074D06E0E06840F0010376
:100AF00094E8070098471034AC42F6D3FFF748FB60
:100B0000A89A0008C89A0008202A04DB203A21FA93
:100B100002F00021704721FA02F3D040C2F1200216
:100B200091400843194670470EB5C10F80EAE07046
:100B30000844CA07002140F233438DE80E000A46FC
:100B40000B46FFF7FCFE03B000BD0EB540F233418B
:100B500002910021CDE900110A460B46FFF7EFFE96
:100B600003B000BD70B5C1F30A5201F00045002486
:100B7000C1F3130140F2FF3341F480119A4201DACC
:100B8000002070BD40F233439A42A2F2334203DCAC
:100B90005242FFF7B9FF00E090402C43F1D04042B1
:100BA00070BD70B501EB020410F8015B15F007038E
:100BB00001D110F8013B2A1106D110F8012B03E0F6
:100BC00010F8016B01F8016B5B1EF9D12B0705D4FE
:100BD0000023521E0FD401F8013BFAE710F8013B45
:100BE00002F10202A1EB030303E013F8015B01F839
:100BF000015B521EF9D5A142D6D3002070BD002959
:100C0000816802D041F0010101E021F00101816021
:100C100070470000074B10B51A6807490A40D0E931
:100C200000142143D0E902400443214311431960D9
:100C300010BD000004230140E030FCFF0029816862
:100C400002D041F4807101E021F48071816070472D
:100C50000029816802D041F4007101E021F40071A3
:100C60008160704730B542680F4B1A40D1E90034BB
:100C700042EA04221343436082680C4B1A40D1E9D4
:100C800004432343D1E9025444EA45042343134374
:100C90008360C26A097E22F47002491EC9B242EA28
:100CA0000151C16230BD0000FFFEFFFCFDF7FFC037
:100CB00070B5072609290AD9C568A1F10A0404EB11
:100CC0004404A640B543A3401D43C56007E0056941
:100CD00001EB4104A640B543A3401D4305611F231A
:100CE000072A09D2446B521E02EB820293409C43B6
:100CF00091400C43446370BD0D2A09D2046BD21F8E
:100D000002EB820293409C4391400C43046370BD0C
:100D1000C46A0D3A02EB820293409C4391400C431B
:100D2000C46270BD816841F08041816070470000FD
:100D30002DE9F04F0446FB489BB005680595D0E9C6
:100D40000156D2E901BAD0F80C80D2F800900868B8
:100D500017904868069088680E9018680190586847
:100D600003909868514604900846FFF793FA594655
:100D700000900846FFF78EFA074649460846FFF7F7
:100D800089FA3946FFF72EFA0099FFF72BFAFFF799
:100D9000D4FC08F0CBFAFFF7F7FC014610F0FF4057
:100DA0007ED04FF07E50FFF7ABFA014600904846E8
:100DB000FFF770FA089058460099FFF76BFA0A900F
:100DC00050460099FFF766FA04990C900846FFF721
:100DD00061FA039982460846FFF75CFA0199814659
:100DE0000846FFF757FA4946FFF7FCF95146FFF767
:100DF000F9F9FFF7A2FC08F099FAFFF7C5FC0146E4
:100E000010F0FF404CD04FF07E50FFF779FA0746C4
:100E100001460198FFF73EFA019039460398FFF723
:100E200039FA039039460498FFF734FA059904908B
:100E30000846FFF72FFA169029460598FFF72AFA79
:100E40000F9031460598FFF725FA11904146059815
:100E5000FFF720FA294613900846FFF71BFA159072
:100E600031462846FFF716FA149041462846FFF708
:100E700011FA314612900846FFF70CFA02904146EB
:100E80003046FFF707FA414610900846FFF702FA8E
:100E90000090DDE91110FFF7A5F90746012100E0F8
:100EA00034E219900498FFF76BFA39460B90FFF77C
:100EB000F1F98146DDE91310FFF7E6F907461890CE
:100EC00001210398FFF75CFA39460990FFF7E2F930
:100ED00082464FF07C5B58460299FFF7D5F900999E
:100EE000FFF7D2F907461A9001210198FFF748FA57
:100EF00039460790FFF7CEF95146FFF773F9494697
:100F0000FFF770F90746DDE90F10FFF7BDF901465D
:100F10000B98FFF7BFF9824658461599FFF7B4F9C9
:100F200083460099FFF7B0F901460998FFF7B2F937
:100F30008146DDE91310FFF755F901460798FFF7E1
:100F4000A9F94946FFF74EF95146FFF74BF901461B
:100F5000FFF7A0F9814639460846FFF79BF9494655
:100F6000FFF740F9FFF7E9FB08F0E0F9FFF70CFCA9
:100F7000824658460299FFF787F9014613900B986D
:100F8000FFF788F98146DDE90F10FFF72BF90146DD
:100F90000B900998FFF77EF90746DDE91110FFF77E
:100FA00073F901460D900798FFF774F93946FFF77A
:100FB00019F94946FFF716F9074601210D98FFF781
:100FC000DFF9099001210B98FFF7DAF90790DDE9C5
:100FD0001510FFF759F90299FFF756F90099FFF735
:100FE00001F9834601213846DDF83490FFF7C8F94E
:100FF00049460090FFF74EF98146012150461A9F5D
:10100000FFF7BEF939460290FFF744F94946FFF76A
:10101000E9F882460B990098FFF73CF907461899C2
:101020000298FFF737F93946FFF7DCF88146139944
:101030000098FFF72FF9074619990298FFF72AF948
:101040003946FFF7CFF8009049460498FFF722F998
:10105000074600990398FFF71DF93946FFF714F981
:10106000074607990C98FFF715F9029059460A9818
:10107000FFF710F90299FFF707F93946FFF7B2F8C1
:101080000B90DDE90010FFF705F90746514604987B
:10109000FFF700F93946FFF7F7F807465946089871
:1010A000FFF7F8F8834609990C98FFF7F3F85946CB
:1010B000FFF7EAF83946FFF795F800905146039894
:1010C000FFF7E8F8074649460198FFF7E3F8394685
:1010D000FFF7DAF80746DDE90910FFF7DBF881468C
:1010E000DDE90710FFF7D6F84946FFF7CDF8394696
:1010F000FFF778F882460C480A4F006810370290D4
:10110000B0F5000F12DB38680B99FFF76BF8386009
:1011100078680099FFF766F878605146B868FFF77D
:1011200061F806E0380500209001002000203860BA
:101130007860B86039680298FFF7ACF88146754866
:101140000B9900680190FFF7A5F81799FFF74AF887
:101150004946FFF747F8834679680298FFF79AF8FF
:101160008146DDE90010FFF795F80699FFF73AF898
:101170004946FFF737F80690B9680298FFF78AF8F2
:10118000074651460198FFF785F80E99FFF72AF8B0
:101190003946FFF727F8824647464FF0FF3124983B
:1011A000FFF7EEF88146009051464046FFF772F88F
:1011B000804630460699FFF76DF8019085F00040B3
:1011C0005946FFF767F80199FFF75EF84146FFF7C8
:1011D0005BF84946FFF75EF80599FFF703F881468B
:1011E0003846DDF800800699FFF754F80290514622
:1011F0003046FFF74FF8019059464846FFF74AF846
:101200000199FEF7EFFF0299FFF73EF84146FFF71D
:1012100041F82946FEF7E6FF8046009803905946BC
:101220003846FFF737F8029051462846FFF732F864
:10123000019048460699FFF72DF80199FFF724F829
:101240000299FEF7CFFF0399FFF724F83146FEF726
:10125000C9FF019059463046FFF71CF8064628465C
:101260000699FFF717F8054651464846FFF712F86A
:101270002946FEF7B7FF3146FFF706F80099FFF75A
:1012800009F83946FEF7AEFF06460146FFF702F8B9
:10129000019982460846FEF7FDFF0746414608468B
:1012A000FEF7F8FF054649460846FEF7F3FF2946D4
:1012B000FEF798FF3946FEF795FF5146FEF792FF7D
:1012C000FFF73BFA08F032F8FFF75EFA01464FF0FD
:1012D0007E50FFF715F8074601464846FEF7DAFF4D
:1012E0000D4D3946286020604046FEF7D3FF686008
:1012F000606039460198FEF7CDFFA860A0603946CE
:101300003046FEF7C7FFE860E06001201BB0BDE893
:10131000F08F00008C010020380500202DE9F05FDF
:101320001F4611AB16460D460446DDE90FBA07CB42
:10133000DDF83490DDF8288000F0B8F800287DD082
:10134000032004F08FFD13AA12A911A804F039FAA2
:1013500041461398FEF79EFF804639461298FEF7E5
:1013600099FF074631461198FEF794FF3946FEF77C
:1013700039FF4146FEF736FF4A4F06464946386078
:101380001398FEF787FF81460C991298FEF782FFAB
:1013900080460B991198FEF77DFF4146FEF722FF2C
:1013A0004946FEF71FFF786051461398FEF772FF1B
:1013B000814659461298FEF76DFF80460E991198A6
:1013C000FEF768FF4146FEF70DFF4946FEF70AFFAC
:1013D000DFF8D480B86041463046FEF75BFF1499D1
:1013E0008946FEF757FF07F10C06716AFEF7FAFE11
:1013F000206041467868FEF74DFF4946FEF74AFFF8
:10140000B16AFEF7EFFE60604FF07E51B868FEF7FC
:10141000E9FE4146FEF73EFF4946FEF73BFFF16A13
:10142000FEF7E0FEA060224614A9304602F0A2FAC0
:10143000706A2060B16A6160F16A00E026E0A16034
:1014400014990F46FEF726FF3036716AFEF7CAFE82
:10145000286039466068FEF71DFFB16AFEF7C2FEDC
:1014600068603946A068FEF715FFF16AFEF7BAFE1C
:10147000A8602A4614A9304602F07CFA706A2860F7
:10148000B06A6860F06AA860BDE8F09F0020206044
:101490006060A060224614A9BDE8F05F01480C30EE
:1014A00002F068BADC050020C3F51C412DE9F041CB
:1014B0001A4C05460E466068114620600846FEF745
:1014C000E9FE074631460846FEF7E4FE0646294691
:1014D0000846FEF7DFFE3146FEF784FE3946FEF78A
:1014E00081FEFFF72AF90E46054607F01FFFFFF7BA
:1014F0004BF960600A480068FFF71FF904460F4681
:101500002846314607F012FF22463B46FFF728F9EE
:1015100002D20120BDE8F0810020FBE73801002065
:101520007401002000228260426002600E48026264
:10153000C2618261C2628262426282604260026013
:1015400042610261C2608A604A6030300A600262B1
:10155000C2618261C26282624262826042600260F3
:1015600042610261C2607047E80500202DE9F84F32
:10157000654C664E052560686549664F4FF000086A
:101580004FF0030A04F1080905287FD2DFE800F0D4
:10159000640328A5B10060A1012005F0FDF862A157
:1015A000022005F0F9F803F097F938B156F8202039
:1015B00063A1032005F0F0F8284666E0386810F0D3
:1015C000FF4F01D15F48386005F03EFA5E48216860
:1015D00050F821205AA1022005F0DEF8022054E044
:1015E000052004F03FFC594A474BA2F10C010C3393
:1015F000A1F10C00CDF8009005F000F8F0BB534AC3
:10160000A2F1180101F13C0005F0A2FD4F493C3167
:10161000A1F1180000F04CFD4C493031A1F10C0053
:1016200000F030FD2068072802D008280AD104E025
:1016300046483C3002F0B0FD04E04449A1F11800F6
:1016400002F014FE012004F03FFD02F011F8C4F88E
:101650000480C4E9040155E002F00AF8D4E9042347
:10166000861A61EB03053A483968FEF749FE83465E
:1016700030462946FFF726F8054601E018E005E068
:101680005946FFF79DF803D240466060BDE8F88FE9
:1016900001F0EEFFC4E904012C4A1B4BA2F10C013E
:1016A0000C33A1F10C00CDF8009004F0A7FF10B1AD
:1016B000C4F804A026E026483968FEF721FE254933
:1016C000FEF7E8FD01462846FFF784F802D2042021
:1016D00004F0C8FB00F040F814E0CA6818A1032029
:1016E00005F05AF816A10320726805F055F8082095
:1016F00005E00A6912A1032005F04EF8072004F066
:10170000E3FC65606068C1E72001002088020020DA
:101710003402002060010020414C474F5249544898
:101720004D20537461727400496E697469616C690B
:101730007A652053656E736F7220427573000000E6
:10174000257300000000FA430C0200206C05002005
:10175000002474499A99993F10B55E4C8CB020686A
:10176000001F06281FD2DFE800F0030B1F37496176
:10177000594AA2F1180101F13C0005F0E9FC1EE014
:10178000554AA3683C32A2F14801104604F056FACB
:1017900051483C3003F0D2FF29E04F494C31A1F1D0
:1017A000100000F057FB76E04B4BA068A3F1180245
:1017B00002F10C01009001F1300000F045FA4649B9
:1017C0003C31A1F1180000F073FC43493031A1F124
:1017D0000C0000F057FCE0E73F4BA068A3F11802B3
:1017E00002F10C01009001F14800FFF7A1FA3A491B
:1017F000303101F10C0000F0B9FBCEE7364BA068A8
:10180000A3F1180202F10C01009001F1580000F060
:1018100053FD3149303101F11C0000F0C3FA2E496B
:101820003C31A1F10C0000F0F5FA34E02A4BA0683D
:10183000A3F1180202F10C01009001F1580000F030
:101840003BFD2549303101F11C0000F0ABFA224983
:101850003C31A1F10C0000F0DDFA002000F086F828
:1018600080B3012000F082F860B3A0681A4C0A909F
:10187000183C07AB94E8070007C31C2204F16C0175
:101880006846FEF79DFCD4E9192304F13001A1F16B
:101890000C00FFF743FD104B0E4918330C3102AC1E
:1018A000A3F10C02081F0FC402F14001A1F11000C6
:1018B000CDE9000118330C3A5839543804F05AFD78
:1018C0000CB010BDFFE704491831A1F10C00FFF77F
:1018D00029FEE0E7200100206C05002000B510493A
:1018E00087B001200F4B48600C310DF1080CA3F1BB
:1018F0000C02081FACE80F0002F14001A1F110003A
:10190000CDE9000118330C3A5839543804F032FD4F
:10191000044907B0A1F10C005DF804EBFFF702BE2B
:10192000200100208405002010B50C4C0C492060DB
:1019300051F820200BA1022004F02EFF0A484FF09E
:101940007E520021C0E90021C0E90212016141611B
:101950008161C0E907120220606010BD20010020F3
:101960000C02002025730000B805002070B50E4E53
:1019700000EB400506EB8504A08881B256F82500EF
:1019800001F04AFE10B9A06801280BD0A08881B2EE
:1019900056F8250001F040FE10B1A068022801D0E1
:1019A000012070BD002070BD9403002070B5114D62
:1019B0000F484021C5E900010121C5E9021080203E
:1019C0000024C5E9040104EB440005EB8001091D76
:1019D00055F8200006C905F0A3F9641CE4B2182CE0
:1019E000F1D3BDE870404FF47A7001F015B80000F3
:1019F000000002409403002070B50446052004F066
:101A000031FA37A1002004F0C7FE36A1002004F00F
:101A1000C3FE3FA1002004F0BFFE32A1002004F06D
:101A2000BBFE46A1002004F0B7FE02F055FF08B14E
:101A3000022070BD42A1012004F0AEFE204601F05C
:101A4000ABF8464C28B154F8202045A1022004F000
:101A5000A3FE0020FFF78AFF0028FAD00120FFF73D
:101A600085FF0028F5D03FA1012004F095FE01F08C
:101A70004BFA28B154F8202039A1022004F08CFE42
:101A80000020FFF773FF0028FAD00120FFF76EFF58
:101A90000028F5D03CA1012004F07EFE01F0B4FB4B
:101AA000050005D054F825202DA1022004F074FE75
:101AB0000020FFF75BFF0028FAD00120FFF756FF58
:101AC0000028F5D038A1012004F066FE40A10220D4
:101AD00004F062FE4AA1022004F05EFE284670BDBA
:101AE0000A0A0000202020202020202020203D3D28
:101AF0003D3D3D3D3D3D3D3D3D3D3D3D3D3D3D3D16
:101B00003D3D3D3D3D3D3D3D3D3D3D3D3D3D00007F
:101B1000202020202020202020207C7C202020200D
:101B20002020202043616C6962726174696F6E20AD
:101B300020202020202020207C7C00000A000000A3
:101B4000457374696D617465204779726F6D657452
:101B5000657220426961733A000000004C02002067
:101B600025730000457374696D617465204D61676C
:101B70006E65746F6D65746572205363616C65206A
:101B80004761696E3A000000457374696D61746560
:101B9000204D61676E65746F6D65746572204F6668
:101BA000667365743A000000546869732069732095
:101BB00074686520656E64206F662043616C69629D
:101BC000726174696F6E2070726F636573733A002F
:101BD000436C69636B205B536176655D20746F2095
:101BE0007772697465206E657720706172616D65CA
:101BF0007465727320746F20455050524F4D2E0003
:101C0000436C69636B205B526566726573685D2027
:101C1000746F20757365206F6C6420706172616DE4
:101C200065746572732E000030B505460C4601F0F0
:101C300015FDAA1863412D1A8C41801A994101D3D0
:101C4000012030BD002030BD2DE9F84F04460D467F
:101C5000D4E90171944688461A466146066805F043
:101C600077FAA06841460090FEF70EFBFEF738FDBC
:101C7000002800DA4042FEF717FD4849484B4FF074
:101C80007E5288423ADD18689A468146014693465C
:101C90001046FEF7F9FA2168FEF7FCFA804628683C
:101CA0000A99FEF7F7FA3146FEF79CFA4946FEF725
:101CB000F1FA4146FEF796FA2060DAF80400804611
:101CC00001465846FEF7E0FA6168FEF7E3FA064679
:101CD00068680A99FEF7DEFA3946FEF783FA41464C
:101CE000FEF7D8FA3146FEF77DFA6060A8680A99D7
:101CF000FEF7D0FA0099FEF7CAFA4BE01868994649
:101D0000834601464FF07E50FEF7BEFA2168FEF78B
:101D1000C1FA824628680A99FEF7BCFA3146FEF7F6
:101D200061FA5946FEF7B6FA5146FEF75BFA2060B3
:101D3000D9F80400824601464FF07E50FEF7A4FA1F
:101D40006168FEF7A7FA064668680A99FEF7A2FAE4
:101D50003946FEF747FA5146FEF79CFA3146FEF740
:101D600041FA6060D9F808704FF07E503946FEF7AE
:101D70008BFA0099FEF78EFA0646A8680A99FEF7D4
:101D800089FA4146FEF72EFA3946FEF783FA3146C4
:101D9000FEF728FAA060BDE8F88F0000DB0FC93F0E
:101DA000780600203EB50C46694600F005F821464D
:101DB000684600F067F93EBD2DE9F04104460D4646
:101DC000006AFEF7BAFC06460F46E069FEF7B5FC6E
:101DD00032463B4607F0F4F8FEF7D6FC2860A069CF
:101DE000FEF7ABFC06F09CFEFEF7CEFC80F0004058
:101DF00068602068FEF7A1FC06460F46E068FEF723
:101E00009CFC32463B4607F0DBF8FEF7BDFCA860C1
:101E1000BDE8F0813EB50C46694600F005F8214664
:101E2000684600F045F93EBD70B5094E0C460546C2
:101E300000683146FEF72EFA206031466868FEF7EA
:101E400029FA60603146A868FEF724FAA06070BDE8
:101E500035FA8E3C2DE9FE4F0C46D0E9005181F059
:101E600000498168C06881F0004880F00047012186
:101E70004846FEF785FA4946FEF70CFA0646012168
:101E80002846FEF77DFA2946FEF704FA4FF07E5108
:101E9000FEF7FAF982463146FEF7A4F9206039468A
:101EA0002846FEF7F7F983465E4641464846FEF768
:101EB000F1F931460290FEF795F90121FEF760FA3B
:101EC000606041462846FEF7E5F90646019039462E
:101ED0004846FEF7DFF931460090FEF7D5F90121BB
:101EE000FEF74EFAA06059460298FEF7CDF901219F
:101EF000FEF746FAE06001214046FEF741FA41460E
:101F0000FEF7C8F901465046FEF76CF920614946D4
:101F10002846FEF7BFF9054639464046FEF7BAF9AE
:101F200006462946FEF75EF90121FEF729FA6061AF
:101F3000DDE90001FEF756F90121FEF721FAA06163
:101F400029463046FEF7A0F90121FEF719FAE061B3
:101F500001213846FEF714FA3946FEF79BF901468F
:101F60005046FEF73FF92062BDE8FE8F3EB50C46B5
:101F7000694600F005F82146684600F083F83EBD4A
:101F80002DE9F047044680680D4681460146FEF77C
:101F900081F9D4F80480064641464046FEF77AF9B6
:101FA0003146FEF71FF90121FEF7EAF94FF07E5A9C
:101FB0005146FEF76CF9FEF7C0FB06460F46484651
:101FC000E168FEF767F9814641462068FEF762F94D
:101FD0004946FEF707F90121FEF7D2F9FEF7ADFBFE
:101FE00032463B4606F0ECFFFEF7CEFB2860E16888
:101FF0006068FEF74FF90646A1682068FEF74AF9C7
:102000003146FEF741F90121FEF7BAF9FEF795FBDB
:1020100006F086FDFEF7B8FB6860D4F80C904946E0
:102020004846FEF737F9D4F8088006464146404650
:10203000FEF730F93146FEF7D5F80121FEF7A0F999
:102040005146FEF724F9FEF778FB06460F46414657
:102050006068FEF71FF9804649462068FEF71AF9C6
:102060004146FEF7BFF80121FEF78AF9FEF765FB4E
:1020700032463B4606F0A4FFFEF786FBA860BDE8AB
:10208000F087000070B5094E0C46054600683146E1
:10209000FEF700F9206031466868FEF7FBF86060E3
:1020A0003146A868FEF7F6F8A06070BDE12E6542E3
:1020B0002DE9F04F0C4605464FF0FF3787B000681A
:1020C0003946FEF75DF9009039466868FEF758F921
:1020D00006463946A868FEF753F9FEF72EFB074679
:1020E000029107F0CBF883468A463046FEF725FB7F
:1020F0000646019107F0C2F8814688460098FEF72F
:102100001CFB0546009107F0B9F84A464346FEF726
:10211000EAF95A465346FEF7E6F9824603913846F5
:10212000029907F00DF881468B463046019907F079
:1021300007F8884604902846009907F001F84346BE
:10214000049AFEF7D0F94A465B46FEF7CCF95246B0
:10215000039BFEF721F9FEF717FB20603846029932
:1021600007F08CF882468B463046019907F086F8D6
:10217000804689462846009906F0E2FF42464B46D3
:10218000FEF7B1F952465B46FEF7ADF981468A4645
:102190003846029906F0D4FF8346039130460199F0
:1021A00006F0CEFF884604902846009907F066F8AE
:1021B0004346049AFEF797F95A46039BFEF793F9B4
:1021C0004A465346FEF789F9FEF7DEFA6060384664
:1021D000029907F053F8834689463046019906F084
:1021E000AFFF80468A462846009907F047F84246E6
:1021F0005346FEF778F95A464B46FEF774F9824685
:1022000089463846029906F09BFF06908B46304679
:10221000019907F033F8884604902846009906F0A3
:102220008FFF4346049AFEF75EF95B46069AFEF777
:102230005AF952464B46FEF7AFF8FEF7A5FAA060F2
:102240003846029906F07CFF81468A46304601995D
:1022500007F014F8834688462846009907F00EF8E0
:102260005A464346FEF73FF94A465346FEF73BF9C6
:1022700082468B463846029907F000F88146884628
:102280003046019906F05CFF06460F462846009945
:1022900006F056FF32463B46FEF725F94A464346CE
:1022A000FEF721F952465B46FEF717F9FEF76CFA86
:1022B000E06007B0BDE8F08F2DE9F04F8DB00E461D
:1022C000DDF858A004469946904609685046FDF747
:1022D000E1FF074650467168FDF7DCFF05465046B2
:1022E000B168FDF7D7FF0146A54885F0004C4FF0D7
:1022F0007E56C0F808C0C0E9006100F10C0B81F007
:102300000043ABE8C80087F000420662C0E906520D
:1023100024308560C0E90063C0E90316C0E9052CDC
:10232000C0E90776D8F800000790D8F804000890B4
:10233000D8F80800099009AA08A907A803F041FAEB
:10234000904891498E4D00680968CDE905108F4A83
:10235000603DCDE9035202F1080005F11801103A81
:10236000CDE90021A1F13003029000F170010832A3
:1023700007A802F021FFA868FEF7DFF907468846A4
:102380006868FEF7DAF93A46434606F019FEFEF7AA
:10239000FBF9FEF7D2F98846074606F06FFFFEF715
:1023A000F3F900903846414606F0CAFEFEF7ECF914
:1023B0008346286880F0004082460146FDF76AFFA8
:1023C0003146FDF764FFFEF7B8F906F0AFFFFEF700
:1023D000DBF98046D9F8080051460190FDF75AFF15
:1023E0005946FDF757FF0746D9F8040051460290B9
:1023F000FDF750FF0099FDF74DFF06464146D9F81D
:102400000000FDF747FF3146FDF7ECFE3946FDF7CA
:10241000E9FE8146DDE90010FDF73CFF064659461E
:102420000298FDF737FF3146FDF72EFF06460146BD
:10243000FDF730FF074649460846FDF72BFF3946B2
:10244000FDF7D0FEFEF779F906F070FFFEF79CF974
:10245000074686F000403946FDF752FF06463946EA
:102460004846FDF74DFF814631464046FDF712FFD5
:10247000079049465846FDF70DFF0746514600981C
:10248000FDF708FF3146FDF705FF3946FDF7AAFEC7
:10249000089049460098FDF7FDFE0746514658460C
:1024A000FDF7F8FE3146FDF7F5FE3946FDF7ECFE87
:1024B000099037483749354A00680968CDE9051061
:1024C000203205F10C06CDE9036202F1080005F1A6
:1024D0003C01103ACDE90021A1F14803029000F13E
:1024E0007401083207A802F067FED5F80490D6F808
:1024F000088049464046FDF7CDFEAF68D6F804B0E7
:10250000824639465846FDF7C5FE5146FDF7BCFEEA
:102510000A90D6F800A039465046FDF7BBFE009061
:102520002F6840463946FDF7B5FE0099FDF7ACFE31
:102530000B9039465846FDF7ADFE074649465046D2
:10254000FDF7A8FE3946FDF79FFE0C900CAA0BA9DB
:102550000AA803F036F90A9820600B9860600C987E
:10256000A0603068E06070682061B06860612868D1
:10257000A0616868E061A86820620DB0BDE8F08FD6
:102580002404002064010020680100205C00002079
:102590006C0100207001002070B50D4D0D4C2946D6
:1025A000204600F0CFF9002811D02946204600F03F
:1025B00017F90021204600F029F90121064801F011
:1025C000F5FABDE870401521044805F09FB970BDCB
:1025D000208000101060024000540040149201203E
:1025E00070B5074C074D2146284600F0ABF900288E
:1025F00005D021462846BDE8704000F0F1B870BD16
:10260000008800102860024070B50D4D0D4C294621
:10261000204600F097F9002811D02946204600F006
:10262000DFF80121084801F0C1FA0021204600F03E
:10263000EDF8BDE870401621044805F067B970BD9B
:10264000008020104060024000580040B0930120FC
:1026500070B50D4D0D4C2946204600F073F9002849
:1026600011D00B48006B58B101280CD10021204635
:1026700000F0CCF829462046BDE8704000F0B0B824
:1026800004F00CF9F6E770BD0080001858600240B5
:10269000D095012070B50F4D0F4C2946204600F013
:1026A00051F9002814D02946204600F099F800215D
:1026B000204600F0ABF8094801F0D8FB012108489A
:1026C00001F074FABDE870401621044805F01EB907
:1026D00070BD000000802020A06002401492012004
:1026E0000054004070B50F4D0F4C2946204600F0B5
:1026F00029F9002814D02946204600F071F800215D
:10270000204600F083F8094801F0B0FB0121084899
:1027100001F04CFABDE870401621044805F0F6B807
:1027200070BD000000800028B8600240B093012016
:102730000058004070B5074C074D2146284600F070
:1027400001F9002805D021462846BDE8704000F078
:1027500047B870BD00802010406402400748006800
:1027600010F0C05F08D006490120486103484FF0CF
:10277000C251583000F01EB870470000006402409B
:102780001C03002070B5094D094C2946204600F075
:10279000D9F8002809D02946204600F021F8204623
:1027A000BDE87040002100F031B870BD0080002805
:1027B000B8640240074A904201D2074801E0054848
:1027C0001038064A8B0001EA020101D5C16070474A
:1027D0008160704710640240006002407D0F7D0FF1
:1027E000074A904201D2074801E005481038064ADE
:1027F0008B0001EA020101D5C1607047816070471A
:1028000010640240006002407D0F7D0F00290168C6
:1028100002D041F0010101E021F0010101607047A7
:102820002DE9F043016821F0010101600021016000
:1028300041608160C1600161212141613C493C4AA4
:102840003D251039904202D18D60BDE8F083384AB1
:102850004FF474661832904201D18E60F5E7344A25
:102860004FF474173032904201D18F60EDE7304A57
:102870004FF0746C4832904202D1C1F808C0E4E7CE
:102880002B4B2C4A6033984201D1CA60DDE7284CBB
:10289000294B7834A04201D1CB60D6E7DFF8908095
:1028A000264C08F19008404501D1CC60CDE7DFF817
:1028B00080804FF03D5908F1A808404502D1C1F889
:1028C0000C90C2E71E49DFF878800839404501D1F5
:1028D0000D60BAE71A4D1835A84201D10E60B4E771
:1028E000174D3035A84201D10F60AEE7144D483581
:1028F000A84202D1C1F800C0A7E7114D10496035C8
:10290000091FA84201D10A609FE70D4A7832904220
:1029100001D10B6099E70A4A9032904201D10C60D4
:1029200093E7074AA83290428FD1C1F800908CE714
:10293000106002403D000020400F002000003D20BC
:102940001064024030B5104A0024904201D20F4A70
:1029500001E00D4A103A0E4B194205D01E2303EA3E
:10296000D12503682B4002E0406900F08003880015
:1029700001D5506800E01068064A1040084201D0B6
:1029800003B10124204630BD1064024000600240C3
:102990003C0F3C0F7D0F7D0F0B0607D5436912B12D
:1029A00043F0800301E023F080034361802908D0D5
:1029B000002A026801F01E0101D00A4300E08A43A8
:1029C0000260704730B50368124ACC6813400A6849
:1029D0002243D1E905452C432243CC6922430C6AAA
:1029E00022434C6A22438C6A22434C6B22438C6BF9
:1029F00022431A430260426922F00703D1E90B2403
:102A000022431A4342610A6942604A6882608968C7
:102A1000C16030BD3F801CF070B5064600F01EFE60
:102A200004460D463246002320462946FFF7FCF8AF
:102A30000028F7D070BD0000F0B51F4C85B00F46E0
:102A40002080C0F306218DF810101C4D16468DF81D
:102A50001100B5F85820D4E902010023FFF7E4F88B
:102A60000028F6D0022004A9CDE90010CDE90276B5
:102A7000A123A0220321114801F0E6FA104D114EC6
:102A800020B1022455F82030B26807E00B4801F06D
:102A900003F850B155F82030726801240AA10620CD
:102AA00003F07AFE204605B0F0BD00F0D7FDC4E982
:102AB00002010020F7E70000F0020020B09301209F
:102AC000D0010020FC0100202573202D3E2025731D
:102AD0000000000003464FF6FF7000EA811040221C
:102AE0001946FFF7A9BF0000F0B51F4C85B00F468F
:102AF0002080C0F306218DF810101C4D16468DF86D
:102B00001100B5F85820D4E902010023FFF78CF832
:102B10000028F6D0022004A9CDE90010CDE9027604
:102B2000A0231A460021114801F08EFA104D114ED3
:102B300020B1022455F82030B26807E00B4800F0BD
:102B4000ABFF50B155F82030726801240AA106206D
:102B500003F022FE204605B0F0BD00F07FFDC4E981
:102B600002010020F7E70000F0020020B0930120EE
:102B7000D0010020FC0100202573202D3E2025736C
:102B80000000000003464FF6FF7000EA811040226B
:102B90001946FFF7A9BF00002DE9F04F99B006468E
:102BA00000F05CFD00F05AFD04460D4686A10220AF
:102BB00003F0F2FD91A1022003F0EEFD9AA10220A4
:102BC00003F0EAFDA1A1022003F0E6FDA6A1022088
:102BD00003F0E2FD00F042FD07468846DFF8BCB294
:102BE0000DF1180A2CE00120FEF7C0FE00286CD081
:102BF00000F034FD001B61EB05010A22801A71F11F
:102C000000001DD3A549891ECDE9001B8B1E0A1F9C
:102C1000891F881E02F0DCFB002852D10CA915A8E0
:102C2000CDF814A006ABCDE900011A46CDF808A0F6
:102C3000CDF80CA0CDF810A009A9104603F09AFB1E
:102C400000F00CFDC01B61EB080140F6B832801AA1
:102C500071F1000004D20020FEF788FE0128C2D0E6
:102C600032468FA1022003F097FD082003F02CFAD2
:102C70003C20B6FBF0F28FA1022003F08DFD00F0A6
:102C8000EDFC804689464EE00120FEF76FFEE0B184
:102C900000F0E4FC001B61EB05010A22801A71F1CF
:102CA000000040D300F0DAFC0D467C490446891E42
:102CB000CDE9001B8B1E0A1F891F881E02F088FBAE
:102CC00028B1042019B0BDE8F08F0620FAE7734F51
:102CD0000A3FB7F90000FDF7E7FC0999FDF782FA12
:102CE0000990B7F90200FDF7DFFC0A99FDF77AFABF
:102CF0000A90B7F90400FDF7D7FC0B99FDF772FABB
:102D00000B900CA9CDF814A015A806ABCDE90001D5
:102D10001A46CDF808A0CDF80CA0CDF810A009A94E
:102D2000104603F027FB00F099FCB0EB080361EBC1
:102D300009019A1B71F1000104D20020FEF716FE72
:102D40000128A1D03046FDF7B8FC05462946099870
:102D5000FDF7D6FA604C8046294620600A98FDF7B8
:102D6000CFFA0646606029460B98FDF7C9FAA060C5
:102D7000FDF7E3FC04460D463046FDF7DEFC064653
:102D80000F464046FDF7D9FC02460B4653A10020F2
:102D9000CDE90245CDE9006703F0FEFC58A1022011
:102DA00003F0FAFC012002F071FE38B9022002F0B3
:102DB0006DFE18B9032002F069FE08B1052081E715
:102DC00003F042FE00207DE7446174612064757267
:102DD000696E672074686520666972737420352097
:102DE0007365636F6E64732077696C6C2062652015
:102DF00069676E6F7265642E000000005768656E2B
:102E000020746865204C4544207475726E732042AE
:102E10006C75652C207468652070726F63657373C0
:102E200020626567696E2E005072657373205B6265
:102E30007574746F6E20305D207768656E20796FD1
:102E4000752061726520646F6E6500005072657355
:102E500073205B627574746F6E20315D20746F2017
:102E600063616E63656C2E004C6179207468652027
:102E700073656E736F72206F6E20666C6174207361
:102E800075726661636520616E6420646F6E27747D
:102E900020746F7563682069742E0000A201002001
:102EA0005468652070726F63657373207374617208
:102EB000742E00005468652070726F636573732010
:102EC00077696C6C2074616B65202564206D696E78
:102ED000757465732E000000600600203D3E20479B
:102EE00079726F20426961733A2025332E31662052
:102EF0002025332E3166202025332E316600000038
:102F0000446F6E650A0000002DE9F04F87B090A174
:102F1000022003F041FC01220421032000F0AEFB5B
:102F200018B1092007B0BDE8F08F0DF1100905AA0E
:102F3000911E484600F0DEFCF0B900F08FFB06461B
:102F40000F4600F0D1FC01468848FDF7D9F98246CA
:102F5000DFF81C8242F2107B10E05A460023304614
:102F60003946FEF761FE08B10B20DBE72A1DA91CDC
:102F70007F4800F0BFFC08B10A20D3E74546B8F906
:102F80000000FDF791FB5146FDF71AFC01D2012428
:102F900000E00024B5F90200FDF786FB5146FDF77D
:102FA0000FFC01D2012000E000200443B5F9040029
:102FB000FDF77AFB5146FDF703FC01D2012000E04A
:102FC00000200443C9D102220421032000F056FB53
:102FD00008B10C20A6E709F10402911E04A800F034
:102FE00089FCE8B900F03AFB06460F4600F07CFC8D
:102FF00001466048FDF784F95D4D8146AD1D11E045
:103000005A46002330463946FEF70EFE08B10D2021
:1030100088E757482A1DA91C801D00F06BFC08B1E9
:103020000E207FE7B5F90000FDF73EFB4946FDF7AE
:10303000D1FB01D2012400E00024B5F90200FDF724
:1030400033FB4946FDF7C6FB01D2012000E000201A
:103050000443B5F90400FDF727FB4946FDF7BAFB29
:1030600001D2012000E000200443C9D1B5F90400D9
:103070000090B5F90230B5F900203FA1002003F01F
:103080008BFBB8F9040000904446B8F90230B8F957
:10309000002043A1002003F07FFB4B4EB068FDF7FA
:1030A0004CFB81468A467068FDF747FB0746884619
:1030B0003068FDF742FB8DE8800702460B4643A1CE
:1030C000002003F069FBB4F90000B5F90010401AC4
:1030D00000EBD0704010FDF7E7FA484F0146384644
:1030E000FDF70EF93060B4F90200B5F90210401A8C
:1030F00000EBD0704010FDF7D7FA01463846FDF7D7
:10310000FFF87060B4F90400B5F90410401A00EB40
:10311000D0704010FDF7C8FA01463846FDF7F0F8C8
:10312000B06037A1022003F037FB072002F0AEFCAD
:1031300038B9082002F0AAFC18B9092002F0A6FC50
:1031400008B10520EEE603F07FFC0020EAE600006F
:103150005468697320697320666173742C20646FEE
:103160006E2774206D696E642E00000000004843D5
:10317000A4010020000048C32020204E6567617430
:1031800069766520626961732076616C75653A20A5
:103190002025356420202535642020253564000055
:1031A000202020506F7369746976652062696173AD
:1031B0002076616C75653A20202535642020253500
:1031C0006420202535640000480600203D3E204D47
:1031D00061676E65746963204761696E20202020F5
:1031E00020203A202025302E3366202025302E3313
:1031F00066202025302E3366000000000000914438
:10320000446F6E650A0000002DE9F04F9BB091A15C
:10321000022003F0C1FA9BA1022003F0BDFAA2A193
:10322000022003F0B9FA00220621104600F026FA27
:1032300040B9002000F078FA20B90021084600F0DB
:10324000E7FA18B107201BB0BDE8F08F00F006FACE
:1032500004460D4609AF06AE0DF15C080DF13809C4
:1032600011E03A1DB91C09A800F044FB60BB06AB95
:10327000194605960296039604960BAA0846CDE9D0
:10328000008903F077F800F0E9F9001B61EB050114
:103290004FF47A72801A71F10000E2D389A1022002
:1032A00003F07AFA072002F00FFFDFF84CA20AF1D0
:1032B000060B52E00120FEF759FB38B13A1DB91C4C
:1032C00009A800F017FB18B10320BCE70820BAE7F3
:1032D000BAF90010BDF924005246814200DC0146D3
:1032E0001180B2F90210BDF92650A94200DC29462E
:1032F0005180B2F90410BDF92840A14200DC2146FA
:10330000AAF80410BBF900105A46814200DB0146BE
:103310001180B2F90210A94200DB29465180B2F9AE
:103320000410A14200DB2146ABF80410FDF7BCF904
:103330000B902846FDF7B8F90C902046FDF7B4F93C
:10334000039606AB194605960D90029604960BAAB5
:103350000846CDE9008903F00DF80020FEF706FBD2
:103360000128A7D0BAF90070D0463846FDF79CF97D
:103370000546BBF900005C46381AFDF795F94FF099
:10338000FF394946FCF7FCFF2946FCF77DFF5B4D02
:103390002860B8F902603046FDF786F98246B4F934
:1033A0000200301AFDF780F94946FCF7E9FF514663
:1033B000FCF76AFF6860B8F904008046FDF774F90D
:1033C000B4F904108246A8EB0100FDF76DF94946F7
:1033D000FCF7D6FF5146FCF757FFA86033463A4644
:1033E00047A10020CDF8008003F0D6F9B4F904001D
:1033F0000090B4F90230B4F900204BA1002003F092
:10340000CBF9A868FDF76CF906466868FDF768F91E
:1034100004462868FDF764F9024623464CA10020C3
:10342000009603F0B9F954A1022003F0B5F9042085
:1034300002F02CFB38B9052002F028FB18B9062051
:1034400002F024FB08B10520FDE603F0FDFA0020A0
:10345000F9E600005768656E20746865204C4544A5
:10346000207475726E7320475245454E2C20746847
:10347000652070726F6365737320626567696E2E75
:10348000000000005072657373205B627574746F86
:103490006E20305D207768656E20796F75206172CF
:1034A0006520646F6E652E005072657373205B62D9
:1034B0007574746F6E20315D20746F2063616E636C
:1034C000656C2E004D6F7665207468652073656E9F
:1034D000736F7220696E20616E7920726F746174EF
:1034E000696F6E20696E20666577206D696E7574F0
:1034F00065732E2E2E000000B0010020540600201F
:103500002020204D6178204D61676E6574696320CD
:1035100076616C75653A2020253564202025356458
:1035200020202535640000002020204D696E204DAC
:1035300061676E657469632076616C75653A2020F9
:1035400025356420202535642020253564000000C1
:103550003D3E204D61676E65746963204F666673FA
:1035600065742020203A20202535642020253564EC
:103570002020253564000000446F6E650A000000BD
:10358000F0B5002201274FF0030C0B6807FA02F593
:103590002B40AB422CD1066853000CFA03F4A6432F
:1035A00006604E68D0F800E09E4046EA0E060660CF
:1035B0004E68012E01D0022E12D18668A643866085
:1035C0008E68D0F808E09E4046EA0E06866046689F
:1035D000AE43466045688E899640B6B23543456035
:1035E000C568A543C5600C699C40C3681C43C460A2
:1035F000521C102AC9D3F0BD4B07DB0E9A40C908F4
:1036000010B500EB8100016A0F249C40A1430162C8
:10361000016A1143016210BD0246002012690A428C
:1036200000D001207047418370470000084810B562
:103630000068FDF742F80749FCF72CFE064C2146CE
:10364000FCF728FE2146BDE81040FCF723BE000031
:1036500044000020422F3C3BAE47813F03484FF4DB
:103660007A710068B0FBF1F0002170474000002043
:103670000148002100687047400000207CB50646E4
:1036800014460D4600208DF800000122694600F026
:1036900007FC48BB40F2FF118E4207D09DF80000A6
:1036A00000F09F0040EA46128DF800208D4207D0BE
:1036B0009DF8000000F0E30040EA85028DF800204C
:1036C0008C4206D09DF8000000F0FC0004438DF809
:1036D00000406946002000F04FFC28B9012201A9F2
:1036E000002000F0DDFB08B103207CBD07499DF8F8
:1036F000040008709DF80010884204D004A1052041
:1037000003F04AF8F0E700207CBD000084060020AA
:10371000484D4335383833202D20434F4E46412005
:103720004661696C000000001CB5044600208DF85D
:10373000000001226946104600F0B2FBB0B9A4F5C2
:103740008070FF3807D09DF8000000F01F0040EAAD
:1037500044118DF800106946012000F00DFC28B9D5
:10376000012201A9104600F09BFB08B103201CBDFB
:1037700017499DF8040048709DF80010884204D055
:1037800014A1052003F008F8F0E7184874B1012CE3
:103790000ED0022C0ED0032C0ED0042C0ED0052CF3
:1037A0000ED0062C0ED0072C0ED00FE010490CE0E6
:1037B00010490AE0104908E0104906E0104904E009
:1037C000104902E0104900E01049016000201CBDD2
:1037D00084060020484D4335383833202D20434F90
:1037E0004E4642204661696C0000000094010020B2
:1037F00048E13A3F1F856B3FF6289C3F5C8FC23FF4
:10380000AE4711400AD7234085EB414033338B400C
:103810007CB5054600200C468DF800000122694663
:10382000022000F03DFBF8B940F2FF118D4207D0B5
:103830009DF8000000F07F0040EAC5128DF80020DE
:103840008C4206D09DF8000000F0FC0004438DF887
:1038500000406946022000F08FFB28B9012201A92F
:10386000022000F01DFB08B103207CBD07499DF834
:10387000040088709DF80010884204D004A105203F
:1038800002F08AFFF0E700207CBD000084060020E3
:10389000484D4335383833202D204D4F44452020A6
:1038A0004661696C0000000008B5684600F011F838
:1038B00058B99DF80000482807D19DF80100342828
:1038C00003D19DF80200332801D0032008BD002059
:1038D00008BD10B5014603220A2000F0E1FA0028D5
:1038E00000D0032010BD00000148006870470000B0
:1038F000940100202DE9FC4114460D46064606229F
:103900006946032000F0CCFA10B10320BDE8FC8129
:10391000BDF8000040BA3080BDF8020040BA2080F7
:10392000BDF8040040BA2880B6F90000FCF7BCFEE0
:103930000E4F3968FCF7AEFCFCF7D2FE3080B4F9CC
:103940000000FCF7B1FE3968FCF7A4FCFCF7C8FEE8
:103950002080B5F90000FCF7A7FE3968FCF79AFC57
:10396000FCF7BEFE28800020D0E700009401002074
:10397000FEE700002DE9F84F044627480E4615469D
:1039800024490068FCF786FC3168FCF783FC4FF0A3
:103990007E563146FCF726FC01463046FCF7B0FC6B
:1039A0000646606AA0618246A06AE0618346E06ADA
:1039B00020620090296861626868A0628146A868F8
:1039C000E0628046E0682060276967606569A560FD
:1039D000FCF708FC5146FCF757FC3146FCF75AFC53
:1039E000E06049463846FCF7FDFB5946FCF74CFCC5
:1039F0003146FCF74FFC206141462846FCF7F2FBBC
:103A00000099FCF741FC3146FCF744FC6061BDE8DD
:103A1000F88F0000DB0FC9407801002070B5074C1B
:103A2000074D2146284600F0E0F8002805D0214641
:103A30002846BDE8704000F049B870BD00040001A0
:103A400000540040014800F04BB9000014920120DE
:103A500070B5074C074D2146284600F0C6F80028EF
:103A600005D021462846BDE8704000F02FB870BD53
:103A70000004000100580040014800F031B9000086
:103A8000B09301200029018802D041F4806101E057
:103A900021F480610180704770B50446FFF7DEFDB8
:103AA00005464FF400363146A06C00F089F8012835
:103AB00001D0002070BD0023B4F8582028461946D4
:103AC000FEF7B2F80028EED0022070BDC943818213
:103AD00070470029018802D041F0010101E021F086
:103AE0000101018070470029818802D041F4006102
:103AF00001E021F40061818070470029818802D0B3
:103B000041F4805101E021F4805181807047000030
:103B100030B40F4C79B1032918D181692160816CCF
:103B20001031C4E901120021C4E90313C06930BC9B
:103B30000749FEF747BFC16B2160816C1031C4E9B2
:103B400001124021C4E90313006CF0E730BC704758
:103B50004C9501200D4910B5884202D101214C0538
:103B60000AE00B49884202D101218C0504E0094991
:103B700088420AD10121CC05204602F013F92046E3
:103B8000BDE81040002102F00DB910BD0054004006
:103B900000580040005C00400029018802D041F438
:103BA000807101E021F48071018070470029018853
:103BB00002D041F4007101E021F4007101807047EE
:103BC0000CB50246002000920A0F21F07F410192BD
:103BD00002D0009A143202E0009A090C18320092C6
:103BE00012680A4200D001200CBD10B50346002027
:103BF0009A884FF4E06404EA11449B8A224021F041
:103C00007F410B4202D0002A00D0012010BD818AE2
:103C1000008B41EA004121F07F407047002A8288F2
:103C200001D00A4300E08A43828070477FB5044692
:103C300080880D4620F03F06684602F0CBF8264902
:103C40000298B0FBF1F189B20E43A680228822F0DF
:103C500001022280214B2A689A421BD85200B0FBF5
:103C6000F2F080B2042800D20420491C2184A083F1
:103C7000208840F00100208020884FF6F531084070
:103C8000A9886A89114301432180A88929890843A9
:103C900020817FBDEB88A3F53F46FF3E05D102EBB7
:103CA0004202B0FBF2F080B208E002EBC20303EB89
:103CB0000212B0FBF2F080B240F48040020501D164
:103CC00040F001004FF4967251434FF47A72B1FB09
:103CD000F2F140F40040C8E740420F00A086010026
:103CE00070B50446806CFFF792FF5F4A0425811A85
:103CF00090426FD00FDC6FF44031401822D0012881
:103D000069D12069012866D10121E069FEF77EFDB5
:103D100012216565A1E0A1F5802142392FD0022949
:103D200059D194F85000E8B3E06C411CE16401788B
:103D3000A06C00F02EFA94F85000401E84F8500059
:103D40000C218AE0606D50B1022810D0032842D1C6
:103D500021780122A06C00F014FA0A217DE094F889
:103D600024100022A06C00F00CFA082175E094F8F1
:103D700024100022A06C00F004FA09216DE0E06C30
:103D8000411CE1640178A06C00F003FA94F8500043
:103D90000B21401E84F85000204603F0B7FD606DF3
:103DA000012800E00AE05DD10021A06CFFF76AFE67
:103DB0000121A06CFFF7FAFE10214EE0606D58B1B2
:103DC00002284FD10121A06CFFF7E6FE032011214C
:103DD000606542E021E045E0606B40B1012841D1DF
:103DE0000121206CFEF712FD0D21656535E0D4E957
:103DF0000B0188420BD2A06A411CA1620178A06C21
:103E000000F0C7F9E06A401C0E21E06225E00121C4
:103E1000A06CFFF7CBFE0F211FE02069002821D105
:103E2000D4E90210401E81420BD10021A06CFFF7A3
:103E300029FE0121A06CFFF7B9FE1421204603F0F2
:103E400065FDA06C00F094F801466068421C626059
:103E50000170A068401C1321A0602046BDE870409E
:103E600003F054BD70BD00004000030070B504466F
:103E7000FFF7F4FB094E05463146A06CFFF7A0FEA4
:103E800008B1002070BD0023B4F858202846194618
:103E9000FDF7CAFE0028EFD0022070BD040000101C
:103EA00070B586B004AB8DF810000120CDE900306C
:103EB000CDE902123C2300261A4603210C4800F0EB
:103EC000C3F80C4C0C4D20B1022654F82030AA68DF
:103ED00007E00748FFF7E0FD38B154F820306A6882
:103EE000012606A1062002F057FC06B0304670BD40
:103EF00014920120D0010020DC0100202573202D28
:103F00003E2025730000000070B586B004AB8DF82C
:103F100010000120CDE90030CDE90212D0230026A7
:103F20001A4603210C4800F08FF80C4C0C4D20B1C0
:103F3000022654F82030AA6807E00748FFF7ACFDD6
:103F400038B154F820306A68012606A1062002F034
:103F500023FC06B0304670BD14920120D001002031
:103F6000EC0100202573202D3E2025730000000069
:103F7000008AC0B27047000070B586B004AA8DF800
:103F8000100000920120CDE9010100263C2303909E
:103F90001A4631460C4800F057F80C4C0C4D20B135
:103FA000022654F82030AA6807E00748FFF774FD9E
:103FB00038B154F820306A68012606A1062002F0C4
:103FC000EBFB06B0304670BD14920120D0010020FA
:103FD000DC0100202573202D3E2025730000000009
:103FE00070B586B004AA8DF8100000920120CDE9CA
:103FF00001010026D02303901A4631460C4800F0F8
:1040000023F80C4C0C4D20B1022654F82030AA683D
:1040100007E00748FFF740FD38B154F820306A68E0
:10402000012606A1062002F0B7FB06B0304670BD9F
:1040300014920120D0010020EC0100202573202DD6
:104040003E202573000000002DE9F05F9846DDE971
:104050000C7691468B4604460025DDF828A0FFF734
:104060001BFD10B10120BDE8F09F0021204603F0A8
:104070004DFC0B985FEA0B01C0B24FF4C06B4FF0E0
:10408000000204D0012931D003295ED13EE06265EF
:1040900084F8249084F80080C4F84CA084F8500080
:1040A000606B70B1012850D133463A46002120465A
:1040B0002663FFF72DFD0121A06CFFF7E3FC012132
:1040C00040E0A762C4E90B2603E0A16A785D485589
:1040D0006D1CB542F9D30121A06CFFF7D3FC01227E
:1040E0005946A06CFFF79AFD02212BE0626584F827
:1040F000249084F80080C4F84CA084F85000226317
:104100000121A06CFFF7BEFC03211BE002216165C9
:1041100084F8249084F80080C4F84CA084F85000FF
:10412000206900B3012810D1012E00D102263346A8
:104130003A4603212046FFF7EBFC0121A06CFFF774
:10414000DCFC0421204603F0E1FB0621204603F0BD
:10415000DDFB0121A06CFFF71FFD0721204603F0C6
:10416000D5FB00207FE76760C4E902260121A06C2F
:10417000FFF788FC01225946A06CFFF74FFD05218F
:10418000E0E712B141F0010101E001F0FE0101821E
:10419000704701827047000004484FF07E51016073
:1041A000002141608160C160704700003805002037
:1041B00070B586B00121022001F0DCFD1FA10220B4
:1041C00002F0EAFA4FF440600225CDE90005032031
:1041D0000124CDE9020400201D4E049069463046BA
:1041E000FFF7CEF904220A213046FFF705FA042230
:1041F0000B213046FFF700FA16480A21174AA0F8AB
:1042000058101549446381644FF06061C0E90F1292
:10421000134A42642F2280F8382045750461816179
:104220000E497839C1610F4901620D21017584750C
:104230000D4900F0B3F806B0002070BD496E6974F6
:1042400069616C697A6520454550524F4D00000008
:1042500000040240B093012000580040B8600240C2
:104260000080002800802010801A060010B503226C
:10427000484B1146484804F0E2FA464B46480322B0
:1042800024331146083004F0DAFA424B4248032244
:1042900090331146103004F0D2FA3E4B3E480322D0
:1042A000483B1146283804F0CAFA3B4B03224833F6
:1042B0001146A3F1800004F0C2FA364B3648603B49
:1042C00001220321303804F0BAFA324B3248783BED
:1042D00001220321403804F0B2FA2E4B2E4803226B
:1042E000243B1146083804F0AAFA2B4B03226C3306
:1042F0001146A3F1840004F0A2FA264B2648543B51
:1043000001220321103804F09AFA224B22486C3B18
:1043100001220321203804F092FA1E4B1E48B433C8
:1043200001220321303004F08AFA1A4B1A48C033B4
:1043300001220321283004F082FA164B164803228A
:1043400048331146183004F07AFA124B124803220F
:10435000CC331146383004F072FA0E4B0E4803226B
:104360006C331146203004F06AFA0A4B0A480322E3
:10437000F0331146403004F062FA06494FF07E52A5
:1043800078390020C1E9002088600C31C1E90020A3
:10439000886010BD240400208C0000202DE9F04F1F
:1043A0000446806C644DDFF89491DFF8948187B007
:1043B0008A464FF4001BA84202D10121584608E06A
:1043C000484502D10121880503E0404503D1012180
:1043D000C80501F0DBFCA06CFFF7BCFB0026ADF8C4
:1043E0000C604BF6FF704FF48067ADF80E00ADF82F
:1043F00010603801ADF81270ADF81400CDF808A0C7
:1044000002A9A06CFFF712FC0121A06CFFF761FB71
:10441000384601F089F9607D8DF80100A07D8DF8A6
:10442000020001200190A06CA84201D11F2006E0EB
:10443000484501D1212002E0404502D148208DF8B5
:104440000000684601F03EF901224FF4C061A06C03
:10445000FFF7E4FB606B3B4D4FF440384FF004092D
:104460004FF0030A01282ED194F838008DF800008F
:10447000684601F027F901221021206CFEF78CFA22
:10448000206CFEF7CDF9E06B2860A06C05F12401EB
:1044900010306860C5E90567EE612E62A1E840074B
:1044A0006E63AE632946206CFEF78CFA01215846F4
:1044B00001F060FC01221021206CFEF76DFA012151
:1044C000A06CFFF710FB2069012831D1012158466B
:1044D00001F050FC207D8DF80000684601F0F2F8F4
:1044E00001221021E069FEF757FAE069FEF798F91A
:1044F000A0692860A06C05F1240110306860C5E94E
:104500000567EE612E62A1E840076E63AE630D4958
:10451000E069FEF757FA0121584601F02BFC012211
:104520001021E069FEF738FA0121A06CFFF7DBFAF1
:1045300007B0BDE8F08F0000005400400058004074
:10454000005C00404C9501202DE9F05F0446A44D2D
:10455000A4A1012002F020F9FFF72AFE05232A4634
:10456000A649012001F01CFA0544A44905232A4666
:10457000091D022001F014FA0544A04905232A462A
:104580000831032001F00CFA054405232A469C4912
:10459000042001F005FA0544994905232A46091D1E
:1045A000184601F0FDF90544954905232A460831CE
:1045B000062001F0F5F9054405232A469149072014
:1045C00001F0EEF905448F4905232A46091D08200C
:1045D00001F0E6F905448B4905232A4608310920F4
:1045E00001F0DEF9054405232A4687490A2001F037
:1045F000D7F90544844905232A46091D0B2001F0FB
:10460000CFF90544804905232A4608310C2001F0E2
:10461000C7F9054404232A467C490D2001F0C0F95E
:1046200005447A4904232A46091D0E2001F0B8F9F1
:104630000544764904232A4608310F2001F0B0F9D9
:10464000054405232A467249102001F0A9F90544C2
:1046500005232A466F49112001F0A2F905440623DB
:104660002A466D49132001F09BF9054406232A468A
:104670006A49122001F094F9054406232A46684944
:10468000152001F08DF9054406232A4665491420BA
:1046900001F086F9054405232A466349162001F0F6
:1046A0007FF9054405232A466049172001F078F96F
:1046B000054406232A465E49192001F071F9054494
:1046C00006232A465B49182001F06AF905440623AF
:1046D0002A4659491B2001F063F9054406232A465E
:1046E00056491A2001F05CF9054405232A4654492D
:1046F0001C2001F055F93A492844401AC2B25148E9
:1047000051A10270022002F047F80025404E414FAF
:10471000414A424BDFF808E1DFF808B15048DFF8C2
:1047200044C1DFF84481DFF8449151494FF0804A99
:10473000012C02D0022C13D042E0304CC4F8088087
:10474000C4E9000C2E484B4C04604B4C44604B4C6D
:1047500084602C484A4C04604A4C44604A4C11E046
:10476000264CC4F80880C4E9000C2548474C046076
:10477000474C4460474C84602248474C0460474C97
:104780004460474C8460214C4648C4F80890C4F803
:104790000490C4F80090C6F800A03D60CBF800106B
:1047A0001960CEF80000106025483F4901601E489E
:1047B0003E4901601D483E4901601D2001F08CF812
:1047C0003CA1022001F0E8FF01F030F8002805D0FC
:1047D000BDE8F05F3AA1022001F0DEBFBDE8F09F26
:1047E0004C910120496E697469616C697A65205049
:1047F0006172616D657465720000000060060020E2
:1048000054060020480600206C0600207806002090
:104810008C0100209001002068010020640100202C
:10482000700100206C01002074010020780100203C
:10483000800100207C0100208801002084010020EC
:1048400060010020000300202564207374617469F6
:1048500063206279746573206372656174656400B6
:10486000B6F3A041637FF9BF4A0C8A4148E17A3F21
:104870006F12833A000016C200803C4300C08D4393
:1048800042608D3F19738F3F3D0A8F3F0000C4C1C6
:104890000000194300003E43CAC38A3F2FDD8C3F0E
:1048A0003333B33F77CC2B320000FA437B148E3F77
:1048B000CDCCCC3D5265616420455050524F4D00E7
:1048C0004661696C20746F2072656164207061724A
:1048D000616D65746572730070B586B00121022048
:1048E00001F048FA4FF4407000900220019002AAB3
:1048F00003200124002531C2324E69463046FEF7BE
:104900003FFE042208213046FEF776FE04220921EC
:104910003046FEF771FE2C492C4A60064C63C1E913
:104920000F022B4A4A64112281F8382081F83A504C
:104930000C618861254864249038C8612548086264
:104940000B200875052081F83900A1F8584022484D
:10495000886422491C48FFF721FD2046FEF75CF8D9
:1049600000F0DEFCC0B900210122084600F024FE60
:1049700078B9002000F0DCFD58B9002000F054FDAB
:1049800038B9002000F094FD18B9072000F06EFE41
:1049900010B1032006B070BDFEF786FF80B900227B
:1049A00006211046FEF76AFE40B90020FEF7BCFE65
:1049B00020B900210846FEF72BFF08B10220E9E7E5
:1049C0000020E7E70004024014920120A0600240AA
:1049D000008020202080001000540040801A060033
:1049E000F0B587B00121082001F0C4F901250024A9
:1049F000CDE90254374F4FF48066019601A938463D
:104A0000CDE90445FEF7BCFD31463846FEF70BFE06
:104A10000121082001F0AEF94FF44070019002200E
:104A20000290032003900494059401A93846FEF7F0
:104A3000A7FD072208213846FEF7DEFD07220921DF
:104A40003846FEF7D9FD25482349EA0601642721A7
:104A500080F8441022490562C0E90D210E2180F83A
:104A60003C10072180F83D1080F83E400460426110
:104A70001B4A303A82610C220277417785774FF4E6
:104A8000E13102F095FD1423164A012113480094E8
:104A900002F070FD01F002FF6423134A00210F4869
:104AA000009402F087FC11A1002001F075FE10A116
:104AB000002001F071FE19A1002001F06DFE0CA193
:104AC000002001F069FE20A1002001F065FE07B082
:104AD000F0BD0000000C024000480040D0950120CD
:104AE00058600240980700208B8F01200A0A0000BE
:104AF000202020202020202020203D3D3D3D3D3D08
:104B00003D3D3D3D3D3D3D3D3D3D3D3D3D3D3D3DD5
:104B10003D3D3D3D3D3D3D3D3D3D000020202020B3
:104B20002020202020207C7C2020202020202020CD
:104B30002053454E53452056322E30202020202031
:104B4000202020207C7C00002020202020202020ED
:104B500020202020202020202020202020766E646D
:104B600032333130393240676D61696C2E636F6D5D
:104B700000000000FEB50446484816460D46844233
:104B800005D10121084601F019F945A173E0B4F1FE
:104B9000804F08D0454884420BD10121022001F00A
:104BA000F5F843A167E00121084601F0EFF843A1C1
:104BB00061E04548844205D10121042001F0E6F876
:104BC00042A158E04448844205D10121082001F067
:104BD000DDF842A14FE04448844205D10121102074
:104BE00001F0D4F841A146E04348844205D10121B7
:104BF000202001F0CBF841A13DE04348844205D19B
:104C00000121022001F0DAF840A134E04248844258
:104C100005D10121080401F0D1F840A12BE0424860
:104C2000844205D10121480401F0C8F83FA122E0E7
:104C30004248844205D10121880401F0BFF840A117
:104C400019E04348844205D10121402001F09EF83B
:104C500040A110E04348844205D10121802001F0A9
:104C600095F841A107E04448844207D1012180150D
:104C700001F08CF841A1052001F08EFD761E002088
:104C8000ADF800606D1EADF80800ADF802000195AA
:104C90006946204602F01EFAFEBD000000000140F9
:104CA00054494D3120436F6E66696700000400402F
:104CB00054494D3320436F6E6669670054494D3245
:104CC00020436F6E666967000008004054494D3408
:104CD00020436F6E66696700000C004054494D35F3
:104CE00020436F6E666967000010004054494D36DE
:104CF00020436F6E666967000014004054494D37C9
:104D000020436F6E666967000004014054494D38C6
:104D100020436F6E666967000040014054494D3979
:104D200020436F6E666967000044014054494D316D
:104D30003020436F6E666967000000000048014044
:104D400054494D313120436F6E66696700000000A1
:104D50000018004054494D313220436F6E66696738
:104D600000000000001C004054494D313320436FC7
:104D70006E666967000000000020004054494D3114
:104D80003420436F6E666967000000002DE9F0472C
:104D900004464948494DDDF820901F4690460E468E
:104DA000844201D11B2030E0B4F1804F04D044484C
:104DB000844203D11D2028E01C2026E04148844283
:104DC00001D11E2021E04048844201D132201CE064
:104DD0003E48844201D1362017E03D48844201D14B
:104DE000372012E03B48844201D12E200DE03A48A2
:104DF000844201D1182008E03848844201D11920AA
:104E000003E03748844201D11A2068604FF4806083
:104E100000F08AFC29482979083001250170477083
:104E200080F80290456000F04DFC2E480021018082
:104E300045808181C0F80880F0070CD029492046C0
:104E400002F05AF801220221204602F04DF826A174
:104E5000062001F0A1FCB0070CD52249204602F043
:104E60007BF801220421204602F03EF826A106200C
:104E700001F092FC70070CD51A49204602F0ACF8FC
:104E800001220821204602F02FF827A1062001F078
:104E900083FC30070ED51349204602F0DBF80122CF
:104EA0001021204602F020F8BDE8F04726A1062098
:104EB00001F072BCBDE8F087000001400C03002047
:104EC0000004004000080040000C004000100040BA
:104ED0000014004000040140004001400044014033
:104EE00000480140549601204368616E6E656C2055
:104EF000313A204F757470757420436F6D70617214
:104F000065206D6F646500004368616E6E656C209E
:104F1000323A204F757470757420436F6D706172F2
:104F200065206D6F646500004368616E6E656C207E
:104F3000333A204F757470757420436F6D706172D1
:104F400065206D6F646500004368616E6E656C205E
:104F5000343A204F757470757420436F6D706172B0
:104F600065206D6F64650000F0B589B00646174690
:104F70000C46684602F09EF860200025ADF800005F
:104F80000120ADF80200ADF80C500820ADF80E007D
:104F9000ADF81050ADF804500297ADF81250E0078C
:104FA00007D06946304601F0A7FF1DA1062001F099
:104FB000F3FBA00707D56946304601F0CDFF1DA1E0
:104FC000062001F0E9FB600707D56946304602F08C
:104FD00003F81DA1062001F0DFFB200709D5694673
:104FE000304602F037F81DA1062001F0D5FB09B0CC
:104FF000F0BD1F48864202D01E488642F7D105A860
:1050000001F04EFF4FF48040ADF820000011ADF8E4
:105010001600ADF8185005A9304601F030FFE6E75C
:105020004368616E6E656C20313A2050574D206D9B
:105030006F6465004368616E6E656C20323A205083
:10504000574D206D6F6465004368616E6E656C201E
:10505000333A2050574D206D6F6465004368616E90
:105060006E656C20343A2050574D206D6F6465009A
:105070000000014000040140F8B52AA1012001F020
:105080008BFB2D4800F0A6FE2B4C2C4D2CA120684C
:10509000B0FBF5F2022001F07FFB60682CA1B0FBB1
:1050A000F5F2022001F078FBA0682DA1B0FBF5F22B
:1050B000022001F071FBE0682DA1B0FBF5F20220A7
:1050C00001F06AFB2EA1012001F066FB314F4FF485
:1050D000D2624FF6FF713846FFF74CFD002633468B
:1050E00040F6B832012138460096FFF74FFE012105
:1050F000384601F0E1FE28A1022001F04DFB2068B6
:10510000B0FBF5F0B0F1807F0BD220F07F414FF083
:10511000E020491E4161274AF02111708661072174
:105120000161F8BD4765742043757272656E742025
:10513000436C6F636B2E00008403002040420F001D
:10514000535953434C4B202564204D487A2E000080
:1051500048434C4B2020202564204D487A2E0000E7
:1051600050434C4B3120202564204D487A2E0000BE
:1051700050434C4B3220202564204D487A2E0000AD
:10518000496E697469616C697A652054696D6572EC
:105190002E2E2E0000480140536574207570205358
:1051A00079737469636B2061742031303030204B27
:1051B000487A2E0023ED00E02DE9F05F1D46DDE981
:1051C0000CB792460E4680460024DFF84C9150E022
:1051D000F4B3042C4DD0082C4BD056F8241040F8D2
:1051E0002410641C092CF3DB4C49A1F1080003F0E6
:1051F0002AFB4A4A4949103A504603F007FC2968FD
:10520000D8F80000FBF740F8434C6C342060696824
:10521000D8F80400FBF738F86060A968D8F80800EF
:10522000FBF732F83D4AA060083202F10801A1F113
:10523000200003F0EBFB0C3428682168FAF7D2FF5A
:10524000386061686868FAF7CDFF7860A16800E0AF
:105250000FE0A868FAF7C6FFB86007F10802391D29
:10526000384600F0AEFA2C4F002448374FF07E58F5
:105270004BE056F824001099FAF7B4FF014648466F
:10528000ADE7E4B3042C40D0082C3ED057F82400FE
:1052900080F0004047F82400641C092CF1DB1F4813
:1052A0005A465146103803F0B1FB1C480A9A203880
:1052B0000E9903F0ABFB05F10802291D284600F00A
:1052C00080FA164A58461832A2F1300103F09EFBCC
:1052D000124A2032A2F10801A1F1380003F096FB36
:1052E0000D4C0F99A8342068FAF77CFF30602069D4
:1052F0000F99FAF777FF3061206A0F9900E004E018
:10530000FAF770FF3062BDE8F09F57F8241040466E
:10531000FAF7BAFFBEE700006C040020AC000020E2
:1053200008B5684600F009F818B99DF8000068282B
:1053300001D0032008BD002008BD10B501460122A0
:105340007520FEF7E1FD002800D0032010BD00000D
:105350002DE9FF471446DDE90C980D4606461F4629
:105360000E2269463B20DDF838A0FEF7CDFD38BBA4
:10537000BDF8000040BA3880BDF8020040BAA9F874
:105380000000BDF8040040BAA8F80000BDF80810FD
:10539000BDF8060049BA3180BDF80A1040BA49BAD2
:1053A0002980BDF80C1000B249BA2180FBF77CF9C6
:1053B0000549FAF7A5FF0549FAF714FFCAF80000F6
:1053C00004B00020BDE8F0870000AA43B81E1242D6
:1053D0002DE9FF471546DDE90C890E4607461C46B8
:1053E0000E2269463B20FEF78FFDC8B9BDF80000CC
:1053F00040BA2080BDF8020040BAA8F80000BDF80D
:10540000040040BAA9F80000BDF8080040BA38808E
:10541000BDF80A0040BA3080BDF80C0040BA2880C0
:1054200004B00020BDE8F0871CB5044600208DF8CC
:105430000000012269461C20FEF766FDB0B9A4F504
:105440008070FF3807D09DF8000000F0E70040EAC8
:10545000C4018DF8001069461C20FEF7C1FD28B973
:10546000012201A91C20FEF74FFD08B103201CBD3D
:1054700007499DF8040008779DF80010884204D081
:1054800004A1052001F088F9F0E700201CBD000010
:10549000910600204D505536303530202D204143A7
:1054A00043454C5F434F4E464947204661696C0077
:1054B0001CB5044600208DF80000012269461A2020
:1054C000FEF722FDA8B9A4F58070FF3806D09DF83C
:1054D000000000F0F80004438DF8004069461A20EF
:1054E000FEF77EFD28B9012201A91A20FEF70CFD66
:1054F00008B103201CBD07499DF8040088769DF87B
:105500000010884204D004A1052001F045F9F0E71D
:1055100000201CBD910600204D50553630353020FE
:105520002D20434F4E464947204661696C000000DC
:105530001CB5044600208DF80000012269461B209E
:10554000FEF7E2FCB0B9A4F58070FF3807D09DF8F3
:10555000000000F0E70040EAC4018DF80010694641
:105560001B20FEF73DFD28B9012201A91B20FEF7F3
:10557000CBFC08B103201CBD07499DF80400C87688
:105580009DF80010884204D004A1052001F004F920
:10559000F0E700201CBD0000910600204D5055365C
:1055A000303530202D204759524F5F434F4E4649EA
:1055B00047204661696C00007CB506460020144611
:1055C0000D468DF80000012269466B20FEF79CFC19
:1055D00048BB40F2FF118E4207D09DF8000000F05A
:1055E000BF0040EA86128DF800208D4207D09DF85A
:1055F000000000F07F0040EAC5028DF800208C42D8
:1056000006D09DF8000000F0F80004438DF800403B
:1056100069466B20FEF7E4FC28B9012201A96B2042
:10562000FEF772FC08B103207CBD08499DF8040018
:1056300081F86B009DF80010884204D004A1052079
:1056400001F0AAF8EFE700207CBD000091060020E1
:105650004D505536303530202D205057525F4D4734
:105660004D545F31204661696C00000001B582B085
:1056700002A91920FEF7B4FC28B9012269461920B5
:10568000FEF742FC08B103200EBD07499DF800005B
:1056900048769DF80810884204D004A1052001F046
:1056A0007BF8F0E700200EBD910600204D505536E6
:1056B000303530202D20534D504C525420466169D6
:1056C0006C00000070B50F230178426801254FF08F
:1056D000E026E2B1124A126802F4E062C2F5E0622A
:1056E000C2F30722C2F10404D3404278A240847876
:1056F0001C400C4B14432201CA54007800F01F01D7
:105700008D40400906EB8000C0F8005170BD01F0EB
:105710001F008540480906EB8000C0F8805170BD2D
:105720000CED00E000E400E0024908430249086093
:10573000704700000000FA050CED00E02DE9F04193
:105740000446C06800250146FAF7A4FD8046A0681B
:105750000146FAF79FFD074660680146FAF79AFD91
:10576000064620680146FAF795FD3146FAF73AFDFC
:105770003946FAF737FD4146FAF734FD2946FAF77C
:1057800031FDB0F5000F1ADBFAF7D7FF03F0CEFDBD
:10579000FAF7FAFF054629462068FAF7B1FD2060BE
:1057A00029466068FAF7ACFD60602946A068FAF700
:1057B000A7FDA0602946E068FAF7A2FDE060BDE819
:1057C000F0812DE9F041064600680D461446002799
:1057D0000146FAF75FFD3946FAF704FD07462868E7
:1057E0000146FAF757FD3946FAF7FCFC07462068F0
:1057F0000146FAF74FFD3946FAF7F4FCFAF79DFF38
:1058000003F094FDFAF7C0FF074639463068FAF70F
:1058100077FD306039462868FAF772FD286039460E
:105820002068FAF76DFD2060BDE8F0812DE9F041B8
:105830001A4C002526461A4F0AE029466D1CADB2C7
:105840002046FDF747F910B10420BDE8F08140344F
:105850003978A01B8842F0DB124E012404EB44008F
:1058600006EB8000806800F0A9F800280ADA0E4AEA
:105870004142034652F821200CA1052000F08CFF84
:105880000120E2E7641CA4B21D2CE7D32A460DA137
:10589000022000F081FF0020D7E700004C9101209A
:1058A00000030020F08F01209C0200205B25735D27
:1058B000204E6F74206D61746368656420282564D0
:1058C00029000000506172616D65746572206C6F13
:1058D00061646564202000002DE9F04101461E202E
:1058E0001F4E00251D2912D0A6F5AE71D1F87011FA
:1058F00000F0F8F8002826DA1A49404251F8202032
:1059000019A1052000F048FF0120BDE8F0811C4FDF
:10591000012404EB440007EB80008168204600F07E
:10592000E1F8002800DA1D24641C1D2CF1D3E1E706
:1059300029466D1CADB23046FDF724F908B10320AD
:10594000E3E7403601E0064C0E4F301B39788842C1
:10595000EEDB2A460CA1022000F01EFF0020D4E757
:105960004C9101209C020020504152414D3A205B55
:1059700025735D204F766572666C6F617400000060
:10598000F08F0120000300205772697465202564A0
:1059900020706167657320455050524F4D000000E4
:1059A00030B5054D00EB400005EB8004C4E9013241
:1059B00045F82010D8B230BDF08F01202DE9F04716
:1059C0000146884611F8013B2D4E11F8014B00208D
:1059D00004EB440506EB850252689A4203D060420C
:1059E00000B2BDE8F087082A28D2DFE802F02727B6
:1059F0002727040B182E11F8010B02061ED560F0A4
:105A0000FF001BE00A7840EA0222487801F1020117
:105A100040EA0200020411D51A4A10430EE00A7847
:105A200040EA02404A7840EA0222887801F1030104
:105A300040EA0200020201D540F07F4091F9007077
:105A4000FAF732FEDFF840900BE04A7840EA024075
:105A50008A7840EA0222C878091DDEE74946FAF74B
:105A60004FFC3900A7F101077FB2F7D156F8251096
:105A700008602046414600F0EFFF20B2B1E7000089
:105A8000F08F01200000FFFF0000204170B50546A7
:105A900000EB45010B4800EB81042846A16800F0AB
:105AA00021F8002807DA084808A10268052000F05C
:105AB00073FE012070BDA8B2A16800F0CDFF0020E8
:105AC00070BD0000F08F01209C0200205041524127
:105AD0004D3A205B25735D204F766572666C6F6171
